:020000040800F2
:10000000800E0020C1010008AF2A00083127000837
:10001000AD2A0008A9070008B53300080000000059
:100020000000000000000000000000002D2B000870
:10003000310A000800000000B12A0008512C000815
:10004000DB010008DB010008DB010008DB01000820
:10005000DB010008DB010008DB010008DB01000810
:10006000DB010008DB010008DB010008DB01000800
:10007000DB010008DB010008DB010008DB010008F0
:10008000DB010008DB010008DB010008350800087F
:10009000AD070008DB010008DB010008DB010008F8
:1000A000DB010008F52C0008DB010008DB0100087B
:1000B0006D2D0008DB010008F52D0008DB010008AC
:1000C000DB010008DB010008DB010008DB010008A0
:1000D000DB01000891330008DB010008DB010008A8
:1000E000DB010008DB010008DB010008DB01000880
:1000F000DB010008DB010008DB010008DB01000870
:10010000DB010008DB010008012E0008DB0100080C
:10011000DB010008DB010008DB010008DB0100084F
:10012000DB010008410800084D080008DB01000859
:10013000DB010008DB010008DB010008DB0100082F
:10014000DB010008DB010008DB010008DB0100081F
:10015000DB0100085908000865080008A9330008F9
:10016000DB010008DB010008DB010008DB010008FF
:10017000DB010008DB010008DB01000800000000D3
:10018000DB010008DB010008DB010008DB010008DF
:10019000DB010008DB010008DB010008DB010008CF
:1001A0000000000000000000DB010008DFF80CD0B8
:1001B00000F04CFA00480047FD350008800E002092
:1001C0000648804706480047FEE7FEE7FEE7FEE7F1
:1001D000FEE7FEE7FEE7FEE7FEE7FEE7D92C0008B4
:1001E000AD0100082DE9F05F0546002092469B46D0
:1001F00088460646814640241BE02846414647463D
:10020000224600F029F953465A46C01A914110D3AC
:1002100011461846224600F010F92D1A67EB010826
:100220004F4622460120002100F007F917EB000994
:100230004E41201EA4F10104DFDC484631462A4627
:100240004346BDE8F09F40EA01039B0703D009E065
:1002500008C9121F08C0042AFAD203E011F8013BB2
:1002600000F8013B521EF9D27047D2B201E000F80B
:10027000012B491EFBD270470022F6E710B513464A
:100280000A4604461946FFF7F0FF204610BD2DE947
:10029000FE4F804681EA0300C00F0C46009021F01B
:1002A000004123F00045B8EB0200A94105D24046C9
:1002B000214690461C460B46024623F00040104360
:1002C00047D0270DC7F30A00C3F30A510290401A22
:1002D000019040286BDAC3F3130040F4801B0098B0
:1002E000924620B10023D2EB030A63EB0B0B01987B
:1002F0005946C0F14002504600F09FF806460D46B0
:1003000050465946019A00F0B7F810EB08006141D9
:10031000002487EA115284EAE7731A4340D0009A16
:1003200062B3019A012A4FEA075215DC001B61EB08
:1003300002014FF0004202EA0752CDE90042001CE0
:1003400041F5801132462B4600F0EEF803B0BDE8CF
:10035000F08F40462146F9E7001B61EB0201001CCB
:1003600041F5801300185B412018A2F5001747EBF8
:10037000030140EAD570B6196D4111E06D084FEAEE
:10038000360645EAC0754FEA0752001B61EB0201D1
:10039000001C41F5801149084FEA30000019514115
:1003A00032462B4603B0BDE8F04F00F0AEB80098DF
:1003B000012240000023D0EB020263EBE0730098BF
:1003C00021464FEAE074B8EB000061EB0401E9E775
:1003D00083F000435BE781F0004158E700F0004202
:1003E00030F000400AD0C10D01F56071C0F3160075
:1003F00042EA0151C20840071143704700200146FC
:10040000704701F0004330B421F0004150EA01028E
:1004100006D00A0DA2F56072C1F31301002A02DCB6
:1004200030BC00207047440F44EAC104C100E0180A
:1004300030BC00EBC25000F031B8202A04DB203A77
:1004400000FA02F1002070479140C2F1200320FA27
:1004500003F3194390407047202A04DB203A21FA25
:1004600002F00021704721FA02F3D040C2F12002CD
:100470009140084319467047202A06DBCB17203AE3
:1004800041FA02F043EAE07306E041FA02F3D04099
:10049000C2F1200291400843194670470029A8BFC5
:1004A0007047401C490008BF20F00100704710B49D
:1004B000B0FA80FC00FA0CF050EA010404BF10BC52
:1004C000704749B1CCF1200421FA04F411FA0CF17F
:1004D00018BF012121430843A3EB0C01CB1D4FEAB8
:1004E00000614FEA102042BF002010BC704700EBB3
:1004F000C35010440029A4BF10BC7047401C4900E1
:1005000008BF20F0010010BC704710B5141E73F135
:10051000000408DA401C41F1000192185B411A43C3
:1005200001D120F0010010BD2DE9F04D92469B460F
:1005300011B1B1FA81F202E0B0FA80F220329046B5
:10054000FFF77BFF04460F4640EA0A0041EA0B0131
:1005500053465A46084313D0114653EA010019D0B6
:10056000C8F140025046FFF777FF05460E46504659
:1005700059464246FFF761FF084305D0012004E0D9
:1005800020463946BDE8F08D0020054346EAE07676
:100590002C4337430A986305E40AA0EB08000022C5
:1005A000FD0A44EA47540A3002D500200146E9E733
:1005B000010510196941DDE9084500196941BDE8E7
:1005C000F04DA2E72DE9FE4FC3F30A5701F00045B5
:1005D0000024C1F30A56C3F31303C1F3130143F418
:1005E000801312EB020AA64641F48011009543EBFA
:1005F000030CA7F1010B16E0B0EB0A0061EB0C0154
:10060000071E71F1000707DA4FF00008D0EB080071
:1006100085F0004568EB0101171A73EB0107EBD376
:10062000761E001849415E45F6DA50EA010209D00B
:10063000CDE900E5002213460296FFF775FF03B0EF
:10064000BDE8F08F20460099F9E70000064C074D01
:1006500006E0E06840F0010394E807009847103492
:10066000AC42F6D3FFF7A6FDAC370008CC37000844
:100670002DE9F04D81EA030404F0004B21F0004520
:1006800014464FF0000A23F0004150EA050220D042
:1006900054EA01021DD0C5F30A570246C5F31303FD
:1006A000C1F31300C1F30A5640F4801543F48013DC
:1006B000A7EB0608101BD64608F2FD3873EB0500C1
:1006C00002D308F1010801E092185B41B8F1000F74
:1006D00003DA00200146BDE8F08D00204FF48011C0
:1006E000064684460EE0171B73EB050705D3121B65
:1006F00063EB050306434CEA010C49084FEA30005E
:1007000092185B4150EA0107EDD152EA030012D082
:1007100082EA040083EA0501084305D0101BAB41BF
:1007200006D20122002306E000224FF0004302E03F
:100730006FF0010253101AEB06004CEB085110EB5E
:100740000A0041EB0B01BDE8F04DFFF7DEBE0000F3
:100750000348AA210170FF2141700821C170704730
:100760004406002010B50D4CA070E2702068606057
:1007700004F10800FFF767FD204602F0D8F90849A8
:100780000028087009D0E278211DBDE810404FF61E
:10079000FF730448921D01F06DBF10BD4406002098
:1007A00020000020F4010020FEE7000070B5194988
:1007B000194802F0F3FE194800F09BFA164B18484E
:1007C000184AD9890160106841F270750C1A1648F0
:1007D000AC4202DD05886D1E058041F27075EC4269
:1007E00002DA0488641C04801160B0F90020A2F5CC
:1007F000FE44FF3C01D100220280B0F90000C0EBB2
:10080000403008440949C8630949B3F90000C86386
:1008100070BD000064040020F4030020B800002034
:100820001C0000201400002018000020600500209B
:10083000A8050020014800F05CBA0000B8000020C4
:10084000014800F071BC000034030020014800F0B2
:100850006BBC000074020020014800F065BC000081
:1008600094030020014800F05FBC0000D402002087
:1008700001681823CAB2103AB2FBF3F2054B6FF3CA
:100880000901032A9B5CC36500D9091D81650846DF
:10089000704700008C37000810B5014600208B69B6
:1008A0008A6A4FF0C07453B1B3F5005F15D072B1CE
:1008B000012A0CD0022A0AD0032A09D104E01AB175
:1008C000012A06D0022A03D1C96AC90100D5012034
:1008D00010BDC96AA142FAD010BD002AF7D0012A82
:1008E000F2D0022AF3D0032AF3D010BD30B5046849
:1008F000256825F480252560046863608368402BA3
:10090000036803D099600068C26030BD9A600068D7
:10091000C16030BD70B500285CD00188C1F30A0504
:100920002D490D8042788378D20842EA4312C2F3FF
:100930000A034B808278C478920942EA84020479DF
:10094000A5F5806542EA8422C2F30A028A8004790E
:100950004679640844EAC614C4F30A04CC80467994
:10096000A3F58063B6090E724679A2F58062C6F3DC
:1009700001164E72C6888E810689CE8146890E8206
:10098000067B8E74467BCE74C6898E82008ACE8AA0
:10099000C0F30A00761CCE820D804B808A80A4F5BD
:1009A0008064CC80A0F58060002614354881282D15
:1009B00000D80E801433282B00D84E801432282AF9
:1009C00000D88E801434282C00D8CE8014302828EB
:1009D00000D84E8170BD00002800002038B50446C4
:1009E00000680168C9061ED5C168C9061BD5016823
:1009F00040680090606B0068016821F001010160AF
:100A0000606B00684068042803D10748C169074843
:100A10008847616B162009684860606B0068016850
:100A200041F00101016038BD28000020660A002065
:100A300070477047F0B590F820500468A468012D05
:100A400005D0022D03D0416A41F4802153E014F017
:100A5000406F01D1E5004BD5C4F30164022C03D9EA
:100A6000416A41F4000146E00125A5401D608D6802
:100A70004FF4C0739DB1CE6835434E6845EAC60554
:100A8000066803EB0417F5514FF4C275076805EBD0
:100A900004150E697E51097D012905D009E00E88F3
:100AA000CD6845EA4655EBE701684E5946F4807635
:100AB0004E511179D2F805504FF4C67641EA05251A
:100AC000016806EB04168D511178D2F801204FF41D
:100AD000C47541EA0221026805EB04155151006812
:100AE00003EB0411425842F0010242500020F0BDD5
:100AF000416A41F4001141620120F0BD10B590F847
:100B00002020012A07D0022A05D0416A41F4802121
:100B10004162012010BD3B48D0F8002242F00102A2
:100B2000C0F80022D0F8002222F47C52C0F8002243
:100B3000D0F800224B6A42EA0322C0F800220A7D64
:100B400002F01F0301229A40D0F81C329343C0F8F0
:100B50001C32CB69B3B9D0F80C329343C0F80C32D5
:100B60008C894B6864F31F434C6900EBC404C4F8E0
:100B700040320C890B6864F31F434C6900EBC404DA
:100B8000C4F84432CB69012B16D1D0F80C32134390
:100B9000C0F80C320C884B6864F31F434C6900EBBF
:100BA000C404C4F840320C89CB6864F31F434C6919
:100BB00000EBC404C4F844328B69002BD0F8043233
:100BC0000ED01343C0F804320B69002BD0F8143256
:100BD00008D01343C0F81432096A012904D008E090
:100BE0009343EFE79343F5E7D0F81C121143C0F8A5
:100BF0001C12D0F8001221F00101C0F800120020F0
:100C000010BD000000640040704730B590F82040EF
:100C1000012C05D0022C03D0416A41F480215DE013
:100C20000468002955D02469A40754D04FF4D8741F
:100C3000056804EB01142D5915F00405956005684D
:100C40002D594ED0ED08556005682C5904F002046A
:100C5000D4604FF4DA74056804EB01142D5905F0E3
:100C60000F05156105682D59C5F3072595610568C0
:100C70002C59240C54614FF4DC72046802EB01120D
:100C8000A4581C700468A458240A5C700468A45812
:100C9000240C9C700468A258120EDA704FF4DE72B5
:100CA000046802EB0112A4581C710468A458240AB9
:100CB0005C710468A458240C9C710468A258120E3C
:100CC000DA71006881B1016941F020010161002001
:100CD00030BDE468A8E7416A41F400114162012097
:100CE00030BD6D0D1560AFE7C16841F02001C160F6
:100CF000EDE72DE9F05F0546006800244669D0F86D
:100D000004908768D0F80CB0D0F810A0D0F8188004
:100D1000F10748D0F90714D001218160B80703D545
:100D2000284600F0E8F90CE0780702D54FF400649B
:100D300007E0380702D54FF4805402E0284600F05F
:100D4000D9F9F80516D529684FF480708860B80580
:100D500003D5284600F0D1F90CE0780502D544F41B
:100D6000005407E0380502D544F4804402E02846E8
:100D700000F0C2F9F80316D529684FF48030886076
:100D8000B80303D5284600F0BAF90CE0780302D581
:100D900044F4004407E0380302D544F4803402E010
:100DA000284600F0ABF9300707D55FEACB6004D5E1
:100DB0002968102044F40074C86070074FF00807D9
:100DC00007D55FEA0B7004D52868C760284600F095
:100DD0005FF9B00706D52868C068800702D02846AA
:100DE00000F057F9700607D55FEACA6004D5296894
:100DF000102044F480640861B00607D55FEA0A70E9
:100E000004D528680761284600F044F9F00606D5A5
:100E100028680069800702D0284600F03CF9B0033A
:100E200008D55FEAC96005D52968102048602846C2
:100E300000F032F9F00307D55FEA097004D528689D
:100E40004760284600F05CF9300446D55FEA4970F7
:100E500040D5F00504D55FEAC87001D044F0010424
:100E6000B00504D55FEA887001D544F0020470052E
:100E700004D55FEA487001D544F00404300529D553
:100E800018F0700F26D008F07000402815D006DC4E
:100E9000102809D020280AD0302816D10AE050287E
:100EA0000ED0602811D10EE044F008040DE044F0AB
:100EB00010040AE044F0200407E044F0400404E099
:100EC00044F0800401E044F480742868816921F0D2
:100ED00070018161296804204860002C05D0686A8F
:100EE000204368622846FFF78FFEBDE8F09F70B58B
:100EF000040003D094F8200010B104E0012070BD7C
:100F0000204600F081F82068016821F002010160AC
:100F100000F058FB0546052604E000F053FB401B9B
:100F20000A2811D8206840688007F6D42068016834
:100F300041F00101016000F045FB05460BE000F0C7
:100F400041FB401B0A2806D9606A40F40030606209
:100F500084F82060D2E720684068C007EFD0207E88
:100F60000128206801683DD021F080010160607E89
:100F700001282068016838D021F040010160A07E7E
:100F800001282068016833D021F020010160E07E53
:100F90000128206801682ED041F010010160207FF7
:100FA00001282068016829D021F008010160607FD4
:100FB00001282068016824D021F004010160D4E9EF
:100FC00002010843D4E90412114308436168491E31
:100FD00008432168C86100206062012084F8200075
:100FE000002070BD41F08001C0E741F04001C5E73D
:100FF00041F02001CAE721F01001CFE741F00801DC
:10100000D4E741F00401D9E710B586B004461421B5
:101010006846FFF731F91B49206888422FD11A48EA
:101020000021026842F000720260006800F0007067
:10103000059015481038026842F008020260006806
:10104000022200F0080005900320CDE90210CDE94E
:1010500000020920049069460C4800F0C3F9002200
:101060001146132000F01CFB132000F00BFB0022A4
:101070001146142000F014FB142000F003FB06B00E
:1010800010BD00000064004040380240000C0240E7
:1010900070477047704770477047000070B504464E
:1010A00090F82000012804D0606A40F400206062BB
:1010B00018E0022084F820002068016821F0010176
:1010C000016000F07FFA05460EE000BF00F07AFAFA
:1010D000401B0A2808D9606A40F40030606205208D
:1010E00084F82000012070BD20684068C007EDD161
:1010F000606270BD704770477047704770477047B7
:10110000704790F83510022903D0802141650120F5
:101110007047052180F835100068016821F0010151
:1011200001600020704700002DE9F84304464FF0AD
:101130000009CDF8009063484FF41651A56D006882
:10114000B0FBF1F72E6894F85C10082000FA01F16A
:1011500031420FD021680A6852070BD50A6822F085
:1011600004020A6094F85C108840A860606D40F04A
:101170000100606594F85C104FF0010808FA01F076
:10118000304208D021684969090604D5A860606D1D
:1011900040F00200606594F85C1004208840304202
:1011A00008D021680968890704D5A860606D40F0FF
:1011B0000400606594F85C1010208840304218D01C
:1011C00021680968090714D5A860206801684903E7
:1011D00004D50068000308D5A16C07E00168C905C3
:1011E00003D4016821F008010160216C09B1204697
:1011F000884794F85C1020208840304231D0216824
:101200000968C9062DD5A86094F83500052820681E
:10121000016806D0490347D5006800031DD4616CFE
:101220001CE021F0160101602068416921F0800175
:101230004161206C08B9A06C20B12068016821F0E0
:101240000801016094F85C103F208840A86084F891
:10125000349084F83580216D1FE0E16B09B12046A0
:101260008847606D00282BD0606DC00714D0052022
:1012700084F835002068016821F0010101600098C0
:10128000401C0090B84203D820680068C007F6D11F
:1012900084F8349084F83580E16C002910D001B0D6
:1012A0002046BDE8F04308470168C905D5D4016868
:1012B00021F01001016084F8349084F83580CCE787
:1012C000BDE8F883100000202DE9F041044600F04D
:1012D00079F906465CB1002584F83450022084F880
:1012E00035002068016821F0010101600DE0012056
:1012F000BDE8F08100F066F9801B052805D92020A3
:101300006065032084F83500F2E720680068C007B4
:10131000F0D12268116820480140D4E90103184344
:10132000D4E903363343184363691843A369184368
:10133000E3691843236A18430843616A042903D107
:10134000D4E90B1319430843106020684069666AAA
:1013500020F0070130460E43012704280CD1A06A73
:101360000643E06A40B12046FFF796FA20B14020DC
:10137000606584F83570BAE7206846612046FFF75B
:1013800077FA94F85C203F2191408160656584F88C
:1013900035700020ACE700003F8010F070B50446C7
:1013A00090F83400002501280CD0012084F8340086
:1013B00094F835600020012E06D084F83400022510
:1013C000284670BD022070BD022684F83560606535
:1013D0002046FFF78BFA2068016841F001010160A7
:1013E000EEE700002DE9F84F00224FF00108032539
:1013F0004FF00F0E0B6808FA02F42340A3426ED19F
:101400004E68012E05D0022E03D0112E01D0122ECF
:1014100012D186684FEA420C05FA0CF7BE43CF683A
:1014200007FA0CF7374387604668A6430C79C4F384
:101430000014944034434460C668570005FA07FC22
:101440008C6826EA0C06BC403443C4604C68022C0D
:1014500001D0122C13D1D40800EB8404A346D4F895
:10146000209054074FEAD46A0EFA0AF629EA0609D0
:101470000E6906FA0AF646EA0906CBF82060046807
:101480000E7924EA0C0406F00306BE4026430660EB
:101490004C68E4006FD53B4C266846F480462660D5
:1014A000246822F0030604F480440094364C34444B
:1014B000A446D4F808489607360F0EFA06F7BC4340
:1014C000324FB84201D100272EE0314FB84201D14E
:1014D000012729E02F4FB84202D1022724E04AE039
:1014E0002D4FB84201D103271EE02C4FB84201D145
:1014F000042719E02A4FB84201D1052714E0294FEB
:10150000B84201D106270FE0274FB84201D1072783
:101510000AE0264FB84201D1082705E0244FB8421F
:1015200001D1092700E00A27B7402743CCF8087803
:10153000204E34684F689C43FF0300D51C43346041
:101540001C4E361D34684F689C43BF0300D51C43B6
:101550003460184E083634684F689C43FF0200D54B
:101560001C433460134E0C3634684F689C43BF02F2
:1015700000D51C433460521C102AFFF43BAFBDE879
:10158000F88F000044380240003001400000024063
:101590000004024000080240000C0240001002401B
:1015A0000014024000180240001C024000200240CB
:1015B00000240240003C01400AB1816170470904E7
:1015C000FBE700000148806870470000040000202D
:1015D000024881680278114481607047040000204D
:1015E0000B4810B5016841F400710160016841F4D5
:1015F00080610160016841F480710160032000F0A6
:101600006FF8002000F006F800F024F8002010BD6C
:10161000003C024070B50D4D04464FF47A712878B5
:10162000B1FBF0F00A490968B1FBF0F000F004FBEF
:1016300048B9102C07D200222146501E00F030F885
:1016400000206C6070BD012070BD0000040000200F
:10165000100000200A4808B5016841F4804101608B
:10166000006800F4804000900548001F016841F0C8
:1016700080510160006800F08050009008BD0000BB
:1016800044380240002809DB00F01F02012191408C
:101690004009800000F1E020C0F800117047000010
:1016A000F0B40E4B1B680C46C3F30223C3F10705CD
:1016B000042D00D90425191D072901D2002300E0BB
:1016C000DB1E012606FA05F1491E214099409E4085
:1016D000761E16403143F0BC01F06DBE0CED00E00B
:1016E000064900F0070208684FF6FF03184040EA79
:1016F0000220034A10430860704700000CED00E030
:101700000000FA052DE9F0470E46050065D0DFF828
:101710001481D8F80000F7B200F00F00B04207D2F1
:1017200088F80070D8F8000000F00F00B04254D1E3
:1017300028683D4C810712D5400703D5206840F446
:10174000E05020602878000703D5206840F460400E
:1017500020602068A96820F0F00008432060287805
:10176000C0072DD0304968680839012812D00228F6
:1017700013D0032811D00968890700292DDA2168C0
:1017800021F0030101432160FFF71CFF814641F274
:10179000883A0EE009688903EFE709688901ECE7F8
:1017A000FFF710FFA0EB0901514502D90320BDE866
:1017B000F0872068696800F00C00B0EB810FEFD172
:1017C000D8F80010404601F00F01B14207D9077068
:1017D000006800F00F00B04201D00120E7E7287850
:1017E000400705D52068E96820F4E05008432060F0
:1017F0002878000706D52068296920F4604040EA6F
:10180000C100206000F038F82168084AC1F30311D4
:10181000515CC8400649086006480068FFF7FAFEB8
:101820000020C4E7003C024008380240943700081A
:1018300010000020080000200448054900680968DD
:10184000044AC1F38221515CC84070471000002057
:1018500008380240A43700080448054900680968B0
:10186000044AC1F34231515CC84070471000002067
:1018700008380240A4370008154810B5006810F079
:101880000C02144813D01449042A0FD0082A0ED190
:101890000F4C241F2268236802F03F025B0207D529
:1018A0002068C0F38810A0FB010106E0084610BDC7
:1018B0002168C1F38811A1FB00010023FEF792FC0F
:1018C0002168C1F30141491C4900B0FBF1F010BD92
:1018D000083802400024F400001BB7002DE9F84F3F
:1018E00004006ED02078DFF83C93C007A9F104050E
:1018F0004AD009F104000168C1F38101012908D02F
:101900000068C0F3810002280AD1D9F80000400223
:1019100006D52868800337D560680028E1D033E019
:101920006068B0F5803F10D0B0F5A02F286810D0C7
:1019300020F480302860286820F4802028606068C7
:10194000A8B1FFF73FFE06460DE0286840F480305E
:10195000F4E740F480202860F7E700BFFFF732FE8D
:10196000801B642873D828688003F7D50CE0FFF744
:1019700029FE064605E000BFFFF724FE801B642811
:10198000F0D828688003F7D42078DFF89C8280079D
:101990004FF0000A3ED5A348001D016811F00C0F5E
:1019A00008D00068C0F3810002280BD1D9F80000EC
:1019B000400207D42868800716D5E068012800D1C6
:1019C00012E02BE1E068B8B10120C8F80000FFF791
:1019D000F9FD064605E000BFFFF7F4FD801B022875
:1019E000C0D828688007F7D52868216920F0F8005A
:1019F00040EAC10028600DE0C8F800A0FFF7E2FD52
:101A0000064604E0FFF7DEFD801B02281FD8286889
:101A10008007F7D42078000722D5824E8348616979
:101A2000703671B101210160FFF7CCFD074604E07B
:101A3000FFF7C8FDC01B022809D830688007F7D51A
:101A40000EE0C0F800A0FFF7BDFD074605E082E00C
:101A5000FFF7B8FDC01B02287DD830688007F7D497
:101A60002078400768D5DFF8BCB100270BF13C0BAC
:101A7000DBF80000C0000BD4DBF8001041F080510F
:101A8000CBF80010DBF80000012700F08050009038
:101A9000674E3068C00510D4306840F48070306004
:101AA000FFF790FD009005E0FFF78CFD0099401ACC
:101AB000022850D83068C005F6D55A4EA0686C365A
:101AC00001280FD00528306810D020F001003060C8
:101AD000306820F004003060A068B8B1FFF772FDF4
:101AE00000900FE0306840F00100F4E740F004009F
:101AF0003060F7E7FFF766FD0099411A41F2883040
:101B0000814266D830688007F4D50EE0FFF75AFDB1
:101B1000009007E0FFF756FD0099411A41F2883026
:101B2000814256D830688007F4D42FB1DBF800101A
:101B300021F08051CBF80010A069C8B33949091DC4
:101B40000968C1F3810102294AD00228504607D012
:101B5000C8F8600000E03CE0FFF734FD04463BE0DD
:101B60004746C8F86000FFF72DFD064605E000BFB8
:101B7000FFF728FD801B02282BD828688001F7D4A6
:101B8000D4E907010843A16A2A4A490802EB014146
:101B9000626A41EA8211084394F82C1040EA01611C
:101BA000C9F8001001203866FFF70CFD044606E076
:101BB00036E000BFFFF706FD001B022809D82868A1
:101BC0008001F7D52CE000BFFFF7FCFC001B0228CA
:101BD00002D90320BDE8F88F28688001F4D41FE003
:101BE0000128F7D0D9F80000E26900F480019142A1
:101BF00014D1226A00F03F0191420FD147F6C07123
:101C0000626A0140914209D1A26A00F440319142D6
:101C100004D1E16A00F07060884201D00120D9E768
:101C20000020D7E70438024000004742800E4742B8
:101C3000007000400000FFFF10B5401EB0F1807F33
:101C400001D3012010BD4FF0E02460610F21601727
:101C500001F0B1FB0020A06107202061002010BD31
:101C60007047704770B590F83C20012A32D00124AB
:101C700080F83C40022280F83D2003685A689D6845
:101C800022F070060A6832435A60134B02689A4287
:101C900014D0B2F1804F11D0104B9A420ED0104B9D
:101CA0009A420BD00F4B9A4208D00F4B9A4205D064
:101CB0000E4B9A4202D00E4B9A4204D1496825F04D
:101CC00080031943916080F83D40002180F83C106A
:101CD000084670BD022070BD0000014000040040B5
:101CE00000080040000C004000040140004001409A
:101CF0000018004090F83D00704710B5040003D074
:101D000094F83D0010B107E0012010BD002084F8D8
:101D10003C00204600F00CF8022084F83D00211D14
:101D2000206801F073F8012084F83D00002010BD08
:101D300008B50168274881420FD12748016841F062
:101D4000010101600068002200F0010000901146CE
:101D50001920FFF7A5FC192036E01F48001FB1F13C
:101D6000804F11D01D4A91421DD1016841F00401FC
:101D700001600068002200F00400009011461E205F
:101D8000FFF78EFC1E201FE0016841F00101016099
:101D90000068002200F00100009011461C20FFF7AF
:101DA0007FFC1C2010E00E4A914211D1016841F0E5
:101DB000080101600068002200F008000090114650
:101DC0003220FFF76DFC3220BDE80840FFF75ABC17
:101DD00008BD0000000001404438024000080040F7
:101DE000000C00400168CA6842F00102CA60006845
:101DF000816801F00701062903D0016841F0010163
:101E00000160002070470168CA6822F00102CA60C0
:101E10000068016A41F21112114207D1016A921061
:101E2000114203D1016821F00101016000207047D7
:101E300070B5044690F83C00012817D0012584F8BD
:101E40003C50022084F83D002068826822F077022E
:101E500022F47F4282600868502830D00DDC2028B0
:101E60004DD005DC98B310283BD148E0022070BD6E
:101E7000302844D0402834D139E0602828D0702858
:101E800006D0B0F5805F2CD0B0F5005F29D10AE014
:101E9000CB68D1E90121206801F029F82068816828
:101EA00041F0770109E0CB68D1E90121206801F018
:101EB0001EF82068816841F48041816011E0CA68A1
:101EC0004968206801F0E8F85021206807E016E032
:101ED000CA684968206801F0F0F86021206801F0C4
:101EE00010F884F83D50002084F83C0070BDCA68AA
:101EF0004968206801F0D0F840212068EFE72268A7
:101F000001461046EBE7704770B50446006801696A
:101F10004FF00005C943890715D4C168C943890733
:101F200011D4E91E016101202077206880698007B3
:101F3000204602D0FFF7E7FF04E000F0C1F820469A
:101F400000F043F9257720680169C943490717D490
:101F5000C168C943490713D46FF00401016102202D
:101F600020772068806910F4407F204602D0FFF778
:101F7000CAFF04E000F0A4F8204600F026F9257717
:101F800020680169C943090716D4C168C943090714
:101F900012D46FF008010161042020772068C06925
:101FA0008007204602D0FFF7AEFF04E000F088F87B
:101FB000204600F00AF9257720680169C943C9065F
:101FC00017D4C168C943C90613D46FF01001016169
:101FD000082020772068C06910F4407F204602D096
:101FE000FFF791FF04E000F06BF8204600F0EDF8F9
:101FF000257720680169C943C90708D1C168C94369
:10200000C90704D1891E0161204600F02FF920681C
:102010000169C943090609D4C168C943090605D441
:102020006FF0800101612046FFF71AFE2068016908
:10203000C943490609D4C168C943490605D46FF0AC
:1020400040010161204600F05DF920680169C94343
:1020500089060BD4C168C943890607D46FF02001F3
:1020600001612046BDE87040FFF7FBBD70BD000078
:1020700010B586B0044614216846FEF7FDF80D49F8
:102080002068884214D10C480021026842F0010205
:102090000260006800F0010005900120009002201D
:1020A000CDE90101CDE9031069460448FFF79AF92B
:1020B00006B010BD000C0040303802400000024065
:1020C000704770B5044690F83C000D4601280DD0CD
:1020D000012684F83C60022084F83D0042B1042AC5
:1020E00018D0082A2AD00C2A4DD139E0022070BD20
:1020F000206800F00FFF2068816941F008018161CC
:102100002068816921F004018161206881692A6960
:10211000114311E0206800F02DFF2068816941F42F
:10212000006181612068816921F48061816120689A
:1021300081692A6941EA0221816124E0206800F076
:102140004FFF2068C16941F00801C1612068C16981
:1021500021F00401C1612068C1692A69114311E0BD
:10216000206800F071FF2068C16941F40061C1611D
:102170002068C16921F48061C1612068C1692A6950
:1021800041EA0221C16184F83D60002084F83C00EE
:1021900070BD10B5040003D094F83D0010B107E005
:1021A000012010BD002084F83C00204600F00CF80F
:1021B000022084F83D00211D206800F027FE012048
:1021C00084F83D00002010BD7047704710B50446EC
:1021D0000068012200F07EFE0B492068884202D090
:1021E0000A49884203D1416C41F4004141642068AE
:1021F000816801F00701062903D0016841F001015F
:102200000160002010BD00000000014000040140FA
:1022100010B504460068002200F05CFE114841F24F
:10222000111221689310814202D00F48814209D1D6
:10223000086A104206D1086A184203D1486C20F49B
:10224000004048642068016A114206D1016A1942BF
:1022500003D1016821F001010160012084F83D00F3
:10226000002010BD000001400004014010B51F49CE
:102270002DED028B884235D11D4C94ED040AB5EE4C
:10228000C00AF1EE10FA02DDF0EE400A01E0F1EED4
:10229000400A10EE900A174988420ADC00211648CD
:1022A000FFF7B6FFBDEC028B1048BDE81040FFF70A
:1022B000AABD9FED128B0E48B5EEC00AF1EE10FAE2
:1022C000406806DDFEF78AF853EC182BFDF7DFFFB8
:1022D00005E0FEF783F853EC182BFEF779F8FEF7CC
:1022E00090F86060BDEC028B10BD00006001002022
:1022F000300600206666E63DA0010020CDCCCCCCA7
:10230000CCCCBC3F7047704770B50268044610687B
:10231000D168536910F00F0F52D003F0010501F49A
:1023200090762E435FD0C20705D0CA0503D5E26B75
:1023300042F00102E263420705D5DA0703D0E26BFF
:1023400042F00202E263820705D5DA0703D0E26BAE
:1023500042F00402E263020707D501F020022A439B
:1023600003D0E26B42F00802E263E26B002A33D052
:10237000800604D5880602D5204600F0C6FE2068F7
:102380004069E16BC0F38010090700D428B32046F0
:1023900000F0ADFE2068416949061AD5416921F077
:1023A00040014161606BA0B11B490165606BFEF7A4
:1023B000A8FE002810D0606B016DBDE87040084792
:1023C000830610D58B060ED52046BDE8704000F080
:1023D0009CBE2046FFF797FF70BD2046FFF793FF96
:1023E0000020E06370BD030606D50B0604D5204629
:1023F000BDE8704000F068BF4006F3D54806F1D54F
:10240000D168204621F04001D160202184F83910A4
:1024100000F08DF970BD0000DF30000870B50400D9
:1024200004D094F83900002510B106E0012070BDF9
:1024300084F83850204600F023F8242084F839002E
:102440002068C16821F40051C160204600F0A8FE58
:102450002068016921F4904101612068416921F0FF
:102460002A0141612068C16841F40051C160E563FF
:10247000202084F8390084F83A00002070BD000064
:102480002DE9F04786B0044614216846FDF7F4FEB6
:102490005B485B49DFF86481D4F800C01439C0227E
:1024A00002230327002506154FF0400AC4454ED1EC
:1024B000D0F800C04CF0100CC0F800C0006800F06C
:1024C00010000590086840F002000860086869463E
:1024D00000F0020005900720CDE903708DE82C0084
:1024E0004848FEF77FFF494F47484FF00069386082
:1024F000C7E90195C7E903564FF480787D61C7E9C4
:1025000006583D6238467D62FEF7DEFE08B1FEF7F2
:1025100090FA6763BC633D4F3B4860377830C7E94A
:1025200003567D61C7E906583D627D6287E8010672
:102530003846FEF7C9FE08B1FEF77BFA2763002292
:1025400011462520BC63FFF7ABF8252050E0DFF8EB
:10255000C080C4454ED1D0F800C04CF0200CC0F86B
:1025600000C0006800F020000590086840F00400FA
:1025700008600868694600F0040005900820CDE96D
:1025800003708DE82C002348FEF72CFF1F4F1E48D8
:10259000C037183838604FF02068C7E90185C7E9AF
:1025A00003567D61BD61FD613D6238467D62FEF787
:1025B0008BFE08B1FEF73DFA6763BC63164F124805
:1025C000C7E903567D61BD61FD613D6260307D629A
:1025D00087E801053846FEF777FE08B1FEF729FACD
:1025E0002763002211464720BC63FFF759F84720B4
:1025F000FFF748F806B0BDE8F08700000010014082
:10260000443802400004024040640240740200204A
:1026100000140140000802409403002030B5006817
:10262000114988420CD1114841880A0408D4024655
:102630004C0412784FF0000306D50A2A01D04380DB
:1026400030BD41F400410DE00D2A09D0C1F30D0465
:10265000074D491C89B22A5541801329EFD830BD56
:1026600041F48041418030BD001401400000002051
:10267000E00100202DE9F843044690F839001F4698
:1026800016460D46202850D1B5B1AEB194F83800A9
:1026900001284AD0012084F838004FF00008C4F81F
:1026A0003C80212084F83900FEF78CFFA684814607
:1026B000E68484F8388026E00120BDE8F883E08CC9
:1026C000401EE084A0684B46B0F5805F4FF00002EA
:1026D0004FF080012046009703D000F026FEE8B9B5
:1026E0000DE000F022FEC8B928882168C0F3080078
:1026F0004860206908B16D1C05E0AD1C03E021684D
:1027000015F8010B4860E08C0028D8D14B46002218
:1027100040212046009700F008FE08B10320CCE7D6
:10272000202084F839000020C7E70220C5E7704761
:10273000FEE70000104810B50E490160032141601A
:1027400000214FF400228160C0E903124FF44012CF
:1027500042610176012242768176C1760177417726
:10276000FEF7C5FB002803D0BDE81040FEF761B9B5
:1027700010BD000000640040B8000020154808B5F6
:10278000016841F4800101600068002200F48000CB
:10279000009011463920FEF783FF3920FEF772FFC3
:1027A000002211463A20FEF77BFF3A20FEF76AFF2F
:1027B000002211464520FEF773FF4520FEF762FF19
:1027C000002211464620FEF76BFFBDE80840462078
:1027D000FEF758BF3038024010B586B01421684665
:1027E000FDF74AFD1D48016841F0040101600168E0
:1027F00001F004010591016841F080010160016868
:1028000001F080010591016841F00101016001685A
:1028100001F001010591016841F0080101600168C2
:1028200001F008010591016841F0020101600068B2
:102830000B4C00F002000590012202212046FEF719
:10284000BBFE02210122CDE90012CDE90221694639
:102850002046FEF7C7FD06B010BD0000303802402C
:102860000000024010B586B000241748009401947F
:102870000294039404941349059401606321C0E910
:10288000011442F2C321C0E9031444618461FFF7DB
:1028900034FA08B1FEF7CDF84FF480500090694645
:1028A0000948FFF7C5FA08B1FEF7C3F8049404A974
:1028B00005480594FFF7D6F9002801D0FEF7B9F8CE
:1028C00006B010BD00000140E000002010B586B049
:1028D00000241648009401940294039404944FF049
:1028E0008041059401605321C0E9011440F2E731B1
:1028F000C0E903148461FFF700FA08B1FEF799F804
:102900004FF48050009069460848FFF791FA08B1EB
:10291000FEF78FF8049404A904480594FFF7A2F980
:10292000002801D0FEF785F806B010BD2001002078
:1029300010B586B0002417480094019402940394C3
:1029400004941349059401604721C0E9011441F240
:102950008731C0E903148461FFF7CFF908B1FEF7AE
:1029600068F84FF48050009069460A48FFF760FA13
:1029700008B1FEF75EF8049404A906480594FFF731
:1029800071F9002801D0FEF754F806B010BD000020
:10299000000800406001002010B58EB000240794AC
:1029A000089409940A940B941C2168460C94FDF732
:1029B00063FC1F481D4901604721C0E9011441F231
:1029C0008731C0E9031480218161FFF796F908B1CE
:1029D000FEF72FF84FF48050079007A91448FFF72F
:1029E00027FA08B1FEF725F81148FFF7D2FB08B126
:1029F000FEF71FF80B940BA90D480C94FFF732F962
:102A000008B1FEF716F86020CDE900040294002218
:102A1000694607480494FFF754FB08B1FEF709F82C
:102A20000348FFF725FB0EB010BD0000000C00406E
:102A3000A00100200D4810B50B4901600C49416010
:102A400000214FF480628160C0E903120C22C0E9CA
:102A50000521C161FFF7E2FC002803D0BDE810406A
:102A6000FDF7E7BF10BD000000100140F401002099
:102A7000A08601000C4810B50A4901604FF4E1310D
:102A80004160002181600C22C160C0E904128161B3
:102A9000C161FFF7C3FC002803D0BDE81040FDF77B
:102AA000C8BF10BD0014014034020020FEE770478B
:102AB0007047000080EC030AC0E90E21511A01EEB4
:102AC000901AF8EEE11AC0ED0A1A20EE212A80EDE4
:102AD000072A90ED080A00EEA10A80ED080AD0ED61
:102AE0000B0A32EE000A71EEE00A60EE810AC0EDD8
:102AF000090A30EE200A10EE101A80ED110AC0ED1E
:102B00000B1AB1F18D4F02DB9FED060A06E010EEC5
:102B1000101A11F1665F03D99FED030A80ED110AC7
:102B20007047000000008046000080C6704770B506
:102B30000023C47819460A46251D07E0C6185B1C09
:102B40003679DBB23144C9B20A44D2B29D42F5D8DB
:102B500000F108031D46E154C6785B1C1C46F25484
:102B6000C079435D8B4204D1005D904201D10120C8
:102B700070BD002070BD000070B505460068FDF70F
:102B80002DFC41EC100B9FED211B00F025FC51ECBE
:102B9000100BFDF736FC1F4C00EE100A1F4884EDA9
:102BA000030AD5ED000A30EEC00A85ED000A84ED77
:102BB000020AD4ED010A184D30EE600A10EE101A28
:102BC00084ED040AA94201DD002205E010EE101A8E
:102BD000134A914203D301220221FEF7EDFC94ED4A
:102BE000040AB5EEC00AF1EE10FA01DCB1EE400ABB
:102BF00010EE100AA84208DD0A48FFF7F3F8BDE816
:102C0000704000210848FFF7E1BA70BDCDCCCCCCB4
:102C1000CCCCBC3F300600206666E63D000002409A
:102C20006666E6BD60010020A001002007489FED18
:102C3000060A80ED000A80ED010A80ED030A80EDAE
:102C4000020A80ED040A70470000000030060020F0
:102C5000FEF7BEBC30B593B030216846FDF70CFBE3
:102C600014210CA8FDF708FB19480025016841F064
:102C700080510160006800F0805011901548016893
:102C800041F4404101600068022400F4404011908A
:102C900001200090000401908001CDE9064006204B
:102CA0000890A820CDE9090404200B906846FEF79F
:102CB00015FE0CA90F2081E831004FF4A0500F90B1
:102CC000E002109005210CA8FEF71CFD13B030BDEA
:102CD00040380240007000400548016841F470012E
:102CE000016003494FF000608039086070470000C0
:102CF00088ED00E010B51648FEF7FCFF012822D150
:102D000004221449F120FDF72DFD04221249F2207E
:102D1000FDF728FD04221149F320FDF723FD0422CD
:102D20000F49F420FDF71EFD04220E49F520FDF7A2
:102D300019FD04220C49F620FDF714FD04496FF03B
:102D4000010009680861BDE810400148FFF7DCB8E0
:102D5000E0000020F00500209C0500201006002067
:102D6000E4050020F80400205405002038B51B4875
:102D7000FEF7C0FF01282BD1194843F291311A4CBC
:102D8000B0F9060000EB800042001648026041F6F0
:102D9000C8101044884209D2B2EE0E0ADFED130AC1
:102DA0002046E16BB0EE601AFFF784FE0020009031
:102DB00094ED110A03460246BDEEC00A0C4810EE1F
:102DC000101A00F0B3FB05496FF0010009680861B3
:102DD000BDE838400148FFF797B800002001002007
:102DE0002800002010060020A80500200AD7A33BD9
:102DF0004C0000200148FFF787B800006001002068
:102E00000148FFF781B80000A0010020F0B502687A
:102E1000254C264D264E274F274B4FF0804CA04285
:102E200009D0604507D0A84205D0B04203D0B842CF
:102E300001D0984204D122F0700E4A6842EA0E0294
:102E4000A0421BD0604519D0A84217D0B04215D07F
:102E5000B84213D0984211D0184DA8420ED0184D48
:102E6000A8420BD0174DA84208D0174DA84205D054
:102E7000164DA84202D0164DA84203D122F4407547
:102E8000CA682A434D6922F080022A4302608A6898
:102E9000C2620A688262A04201D0984201D10969E7
:102EA000016301214161F0BD0000014000040040C8
:102EB00000080040000C00400004014000400140B8
:102EC000004401400048014000180040001C004040
:102ED0000020004010B501F01F030121046A994051
:102EE0008C430462016A9A401143016210BD10B51F
:102EF000846842EA032224F47F440A432243826026
:102F000010BD826822F070020A4342F0070181601E
:102F100070470000F0B5026A22F001020262036A03
:102F200042688469124E24F073050C682C4323F028
:102F300002058B682B430D4DA84201D0B04205D14C
:102F400023F00807CB683B4323F00403A84201D0D9
:102F5000B04205D14D6922F4407215438A692A4373
:102F600042608461496841630362F0BD0000014032
:102F700000040140F0B5026A22F010020262026A07
:102F8000436884690D6824F4E64444EA05248D68A6
:102F900022F0200242EA05120F4D104EA84201D045
:102FA000B04206D1CF6822F0800242EA071222F036
:102FB0004002A84201D0B04207D14D6923F44063DA
:102FC00043EA85038D6943EA850343608461496868
:102FD00081630262F0BD0000000001400004014076
:102FE000F0B5026A22F480720262026A4368C46920
:102FF00022F4007224F073050C68124E2C438D6885
:1030000042EA05220E4DA84201D0B04206D1CF6857
:1030100022F4006242EA072222F48062A84201D030
:10302000B04207D14D6923F4405343EA05138D693B
:1030300043EA05134360C4614968C1630262F0BD9D
:10304000000001400004014030B5026A22F48052C1
:103050000262046A4268C3690D6823F4E64343EAE6
:1030600005238D6824F4005444EA0534084DA84231
:1030700002D0084DA84204D14D6922F4804242EAB0
:1030800085124260C36149680164046230BD00007A
:10309000000001400004014010B5036A046A24F0F6
:1030A00001040462846924F0F00444EA021423F069
:1030B0000A020A438461026210BD10B5036A23F05C
:1030C000100303628369046A23F4704343EA023203
:1030D00024F0A00343EA01118261016210BD10B522
:1030E000806B0021C185C184FFF70DF910BD016817
:1030F000CA6822F49072CA6001684A6922F001022B
:103100004A61202180F83A10704710B590F83A10C3
:10311000222901D0022010BD8168B1F5805F11D055
:103120000169002901681FD0496801F07F03816AA5
:103130004A1C82620B70C18D491E0904090CC185AD
:1031400018D02BE00269816A002A0268526805D013
:10315000D2B20A80816A491C8162ECE7C2F308029C
:103160000A80816A891CF7E74A68816A4B1C83627E
:103170000A70E0E70168CA6822F02002CA600168AC
:10318000CA6822F48072CA6001684A6922F00102AA
:103190004A61202180F83A10FFF740FA002010BD64
:1031A0002DE9F041044600680169E26821F44051CC
:1031B000114301612169A068E26908436169114313
:1031C00008432168CA6849F20C639A430243CA6003
:1031D00020684169A26921F4407111434161E069AD
:1031E000192764253226B0F5004F354A3549206845
:1031F0004FF0000806D0884201D0904236D1FEF749
:103200002BFB35E0884201D0904202D1FEF724FB2F
:1032100001E0FEF711FB61684A18A0FB070148EBCB
:103220000803FCF7DFFF0146B0FBF5F00201B1FB3C
:10323000F5F06FF01803584301EB800006EBC00077
:10324000B0FBF5F000F0F80002EB4002B1FBF5F046
:10325000584301EB800006EBC000B0FBF5F000F036
:103260000700216810448860BDE8F081FEF7E4FAA9
:1032700061688B0F8A00A0FB0701FCF7B3FF0146D2
:10328000B0FBF5F06FF01802504301EB800006EB45
:103290000010B0FBF5F000F0F002B1FBF5F002EB2E
:1032A0000012B1FBF5F06FF01803584301EB8000FA
:1032B00006EB0010B0FBF5F000F00F00D1E70000C6
:1032C000001401400010014090F83910212901D06C
:1032D000022070478168B1F5805F016A0BD04A1CFB
:1032E0000262026809785160C18C491E0904090C08
:1032F000C1840ED017E009880268C1F3080151604B
:1033000001690029016A02D0491C0162ECE7891CAD
:10331000FBE70168CA6822F08002CA600068C168E1
:1033200041F04001C160002070472DE9F04198460E
:1033300017460E460446069D1DE0681C1BD02DB1A5
:10334000FEF740F9A0EB0800A84214D92068C16834
:1033500021F4D071C1602068416921F0010141610F
:10336000202084F8390084F83A00002084F83800DE
:103370000320BDE8F0812068006836EA000004D030
:103380000020B842D9D00020F3E70120F9E700007F
:1033900010B50448FDF722FBBDE810400148FEF7D8
:1033A000B3BF0000F40100200148FEF7ADBF0000EC
:1033B00034020020FEE70907090E002804DB00F1B3
:1033C000E02080F80014704700F00F0000F1E020CA
:1033D00080F8141D7047000010B52DED040B86B069
:1033E0009DED060B10EE100A10EE901A8DED000BFD
:1033F000002818BF0120084320F00040C0F17F6082
:1034000000F1E040C00F21D19DED080B10EE101A25
:1034100010EE900A8DED000B002918BF0121084322
:1034200020F00040C0F17F6000F1E040C00F0DD1FE
:1034300029490798B1EB400F04BF0698002842D0F5
:103440000998400004BF089800283CD09DED080B67
:1034500053EC102B9DED060B51EC100BFDF7B2F861
:10346000CDE902019DED020B40F2FF7110EE900AD2
:103470008DED000B31EA105021D00798039900F030
:10348000004001F00041884219D09DED080B8DED00
:10349000040B9DED020B8DED000B10EE900A0599CB
:1034A00061F31E0005909DED041B9DED020B51EC98
:1034B000110B53EC102BFCF78EFFCDE902019DEDB3
:1034C000020B0AB010BD012000F02AF80AB0BDE8D6
:1034D000104000F005B800000000E0FF0000000010
:1034E0009FED050B10B553EC102B51EC100BFDF7B5
:1034F000BFF841EC100B10BD000000000000000000
:1035000002E008C8121F08C1002AFAD170477047AC
:10351000002001E001C1121F002AFBD1704700000A
:1035200001490860704700004800002008B50122EA
:10353000009252028262002208230263C0E90D2336
:1035400080F83C200A0A80F8642080F8651000F1B9
:10355000640200F128016B460148FDF76BFA08BDD3
:10356000B80000200FB444F2200010B54FF6FF71F0
:1035700002900020CDE903010E21CDE906010121D1
:103580000590CDE90A10CDE9080102A90248FDF72E
:10359000B5FA10BC5DF814FBB800002070B50C46FD
:1035A000054601F15C0301F1400200211048FDF7DE
:1035B0002CFB34F85C0FF1EE040A40BAE881608815
:1035C00040BA2880A08840BA00EE100AB8EE400A3F
:1035D00020EE200ADFED070A20EE200ADFED060AC2
:1035E00020EE200A85ED010AA079A88170BD0000B7
:1035F000B8000020000080380000484288B09FEDED
:10360000440A8DED060AFDF7EBFFFFF723FBFFF7FA
:10361000E3F8FFF7B3F8FFF78DF8FFF723F9FFF7AB
:1036200029FAFFF753F9FFF705FAFFF781F9FFF7DA
:10363000B3F9182237496846FCF705FE35481038BB
:103640000FC8FFF78FFF3448FDF728FD32480068A8
:10365000416941F00201416130490868C26842F4A1
:103660000052C2600868C16841F02001C1602C4866
:10367000FEF743FB2A480068C16841F00101C160C0
:103680002748FEF7AFFB2748FEF737FB25480068C1
:10369000C16841F00101C1602248FEF7A3FB224846
:1036A000FEF72BFB20480068C16841F00101C160B2
:1036B0001D48FEF797FB1D48FEF71FFB1B4C2068BB
:1036C000C16841F00101C1602046FEF78BFB00217B
:1036D0002046FEF77BFDFFF7A9FAFDF739F800F069
:1036E0002BF8216801204863114931200860114CF2
:1036F0005FF00A05B4F9060090FBF5F000EE100A41
:1037000006A8B8EEC00A8DED060AFFF735FAF1E714
:1037100000000000E0040020B80000203402002077
:10372000E00000202001002060010020A001002016
:10373000041401402800002038B51249002508680B
:10374000026842680092C26842F40052C26008688F
:10375000C16841F01001C1600A4C0B4A94F83A006C
:1037600020280DD11623A262A385E5632168606B32
:10377000091DFDF713FE2068416941F040014161D8
:1037800038BD0000F4010020660A00200006101673
:1037900000061016000000000000000001020304F3
:1037A000060708090000000001020304CC370008E6
:1037B000000000204C000000003500081838000808
:1037C0004C000020340E00001035000800000000FE
:1037D0000100000010000000000000000024F400C0
:1037E00000000000000000000000000000000000D9
:1037F00000000000000000000000000000000000C9
:1038000000000000000000000000000000000000B8
:0838100015090008000000008A
:04000005080001AD41
:00000001FF
