:020000040800F2
:10000000B804002045010008D7170008631600084F
:10001000D5170008FB0600089B1B00080000000025
:10002000000000000000000000000000DB170008D6
:10003000FD06000800000000D9170008811800081C
:100040005F0100085F0100085F0100085F01000810
:100050005F0100085F0100085F0100085F01000800
:100060005F0100085F0100085F0100085F010008F0
:100070005F0100085F0100085F0100085F010008E0
:100080005F0100085F0100085F0100085F010008D0
:100090005F0100085F0100085F0100085F010008C0
:1000A0005F0100085F0100085F0100085F010008B0
:1000B0005F010008D5180008E11800085F0100087A
:1000C0005F0100085F0100085F0100085F01000890
:1000D0005F0100085F0100085F0100085F01000880
:1000E0005F0100085F0100085F0100085F01000870
:1000F0005F0100085F0100085F0100085F01000860
:100100005F0100085F0100085F0100085F0100084F
:100110005F0100085F0100085F0100085F0100083F
:100120005F0100085F0100085F0100085F0100082F
:10013000DFF80CD000F060FA00480047891C000886
:10014000B80400200648804706480047FEE7FEE75F
:10015000FEE7FEE7FEE7FEE7FEE7FEE7FEE7FEE777
:10016000D318000831010008202A04DB203A21FAC4
:1001700002F00021704721FA02F3D040C2F12002C0
:100180009140084319467047D2B201E000F8012BB4
:10019000491EFBD270470022F6E710B513460A4607
:1001A00004461946FFF7F0FF204610BDF0B480EA80
:1001B0000102D40F4200B2EB410F02D202460846C0
:1001C00011464A0042D0C30DDDB2C1F3C752AD1A89
:1001D000202D35DAC1F3160141F4000204B1524278
:1001E000C5F1200602FA06F12A411044B3EBD05FB4
:1001F00023D0C4B1012DA0EBC35009DCF0BC4FF0FB
:10020000004202EAC352DBB200F5000000F026B95A
:10021000400000F1807000EBC350A0F1807040EA14
:10022000D170490009E0490841EAC071A0EBC35010
:1002300000F50000400800EBC350F0BC00F005B929
:100240006142012202EB4101001BF6E7F0BC70475E
:1002500081F00041AAE780F00040A7E72DE9FE4FBA
:10026000804681EA0300C00F0C46009021F0004157
:1002700023F00045B8EB0200A94105D240462146D3
:1002800090461C460B46024623F00040104347D0E0
:10029000270DC7F30A00C3F30A510290401A0190D8
:1002A00040286BDAC3F3130040F4801B0098924699
:1002B00020B10023D2EB030A63EB0B0B01985946E4
:1002C000C0F14002504600F09FF806460D465046E9
:1002D0005946019A00F0A7F810EB0800614100248C
:1002E00087EA115284EAE7731A4340D0009A62B356
:1002F000019A012A4FEA075215DC001B61EB02014B
:100300004FF0004202EA0752CDE90042001C41F5DD
:10031000801132462B4600F0DEF803B0BDE8F08FC6
:1003200040462146F9E7001B61EB0201001C41F544
:10033000801300185B412018A2F5001747EB03015A
:1003400040EAD570B6196D4111E06D084FEA3606E6
:1003500045EAC0754FEA0752001B61EB0201001C21
:1003600041F5801149084FEA3000001951413246E9
:100370002B4603B0BDE8F04F00F09EB80098012274
:1003800040000023D0EB020263EBE07300982146AB
:100390004FEAE074B8EB000061EB0401E9E783F099
:1003A00000435BE781F0004158E700F0004230F085
:1003B00000400AD0C10D01F56071C0F3160042EA99
:1003C0000151C208400711437047002001467047A1
:1003D00001F0004330B421F0004150EA010206D0A0
:1003E0000A0DA2F56072C1F31301002A02DC30BCD1
:1003F00000207047440F44EAC104C100E01830BC3B
:1004000000EBC25000F021B8202A04DB203A00FAA9
:1004100002F1002070479140C2F1200320FA03F35B
:10042000194390407047202A06DBCB17203A41FA47
:1004300002F043EAE07306E041FA02F3D040C2F171
:10044000200291400843194670470029A8BF704711
:10045000401C490008BF20F00100704710B4B0FAFA
:1004600080FC00FA0CF050EA010404BF10BC704795
:1004700049B1CCF1200421FA04F411FA0CF118BFAF
:10048000012121430843A3EB0C01CB1D4FEA00617E
:100490004FEA102042BF002010BC704700EBC35051
:1004A00010440029A4BF10BC7047401C490008BF7D
:1004B00020F0010010BC704710B5141E73F1000449
:1004C00008DA401C41F1000192185B411A4301D146
:1004D00020F0010010BD2DE9F04D92469B4611B170
:1004E000B1FA81F202E0B0FA80F220329046FFF7D2
:1004F0008BFF04460F4640EA0A0041EA0B015346CF
:100500005A46084313D0114653EA010019D0C8F1E6
:1005100040025046FFF728FE05460E465046594613
:100520004246FFF771FF084305D0012004E0204652
:100530003946BDE8F08D0020054346EAE0762C43BD
:1005400037430A986305E40AA0EB08000022FD0A7D
:1005500044EA47540A3002D500200146E9E7010584
:1005600010196941DDE9084500196941BDE8F04D00
:10057000A2E72DE9FE4FC3F30A5701F0004500241E
:10058000C1F30A56C3F31303C1F3130143F48013F9
:1005900012EB020AA64641F48011009543EB030CCE
:1005A000A7F1010B16E0B0EB0A0061EB0C01071E8E
:1005B00071F1000707DA4FF00008D0EB080085F072
:1005C000004568EB0101171A73EB0107EBD3761EA8
:1005D000001849415E45F6DA50EA010209D0CDE93A
:1005E00000E5002213460296FFF775FF03B0BDE851
:1005F000F08F20460099F9E7064C074D06E0E068C9
:1006000040F0010394E8070098471034AC42F6D359
:10061000FFF792FD081D0008281D00082DE9F04D88
:1006200081EA030404F0004B21F0004514464FF02A
:10063000000A23F0004150EA050220D054EA0102EA
:100640001DD0C5F30A570246C5F31303C1F31300C7
:10065000C1F30A5640F4801543F48013A7EB060853
:10066000101BD64608F2FD3873EB050002D308F1E3
:10067000010801E092185B41B8F1000F03DA002095
:100680000146BDE8F08D00204FF4801106468446F7
:100690000EE0171B73EB050705D3121B63EB050375
:1006A00006434CEA010C49084FEA300092185B41BE
:1006B00050EA0107EDD152EA030012D082EA0400A9
:1006C00083EA0501084305D0101BAB4106D2012285
:1006D000002306E000224FF0004302E06FF0010229
:1006E00053101AEB06004CEB085110EB0A0041EBDB
:1006F0000B01BDE8F04DFFF7DFBEFEE77047704726
:100700002DE9F84FDFF8C891002409F1040A0AF135
:10071000040B23460F270BF1040ED1E00125A54061
:1007200006EA0502AA4276D1DFF8A8C14E68A6EB18
:100730000C0866452BD00DDC032E34D005DC36B317
:10074000012E19D0022E2FD11BE0112E16D0122E01
:100750002AD119E0B8F5881F19D006DCB8F5803F1A
:1007600015D0B8F5801F1FD111E0B8F5001F0ED0CD
:10077000B8F5041F18D10AE0CB6815E0CB681B1D43
:1007800012E0CB6808330FE0CB680C330CE08B68C9
:100790002BB1012B4FF0080303D0456104E0042383
:1007A00002E0056100E00023FF2A01D8064601E0CF
:1007B00000F104064FEA840501D9A5F12005D6F819
:1007C000008007FA05FC28EA0C0803FA05F548EA58
:1007D0000508C6F800804D68ED0070D53E4DAE6945
:1007E00046F00106AE61AD6924F0030605F001058F
:1007F00000953A4D06EB050CDCF80850A607360FBD
:1008000007FA06F825EA0805DFF8D480404503D149
:100810004FF0000825E052E0DFF8C880404502D1E3
:100820004FF001081DE0DFF8C080404502D14FF0D5
:10083000020816E0DFF8B480404502D14FF003080B
:100840000FE0DFF8AC80404502D14FF0040808E02B
:10085000DFF8A080404502D14FF0050801E04FF0DD
:10086000060808FA06F848EA0508CCF808804D683A
:10087000D9F80060ED034D4601D5164300E09643DC
:100880002E604D68DAF80060AD03554601D5164379
:1008900000E096432E604D68DBF80060ED025D4697
:1008A00001D5164300E096432E604D68DEF80060E7
:1008B000AD02754601D5164300E096432E60641CD8
:1008C0000A681646E2407FF429AFBDE8F88F0000C1
:1008D000000401400000111000100240000001401F
:1008E00000080140000C01400010014000140140CC
:1008F00000180140001C01400AB101617047090461
:10090000FBE70000014880687047000000000020FD
:10091000024881680278114481607047000000201D
:10092000074810B5016841F010010160032000F094
:1009300075F8002000F006F800F024F8002010BD43
:100940000020024070B50D4D04464FF47A712878AE
:10095000B1FBF0F00A490968B1FBF0F000F0CCFA05
:1009600048B9102C07D200222146501E00F036F85C
:1009700000206C6070BD012070BD000000000020F0
:100980000C0000200C4808B5816941F0010181612B
:10099000816901F001010091C16941F08051C1619B
:1009A000C06900F0805000900448416821F0E06187
:1009B00041F00071416008BD00100240000001409C
:1009C000002809DB00F01F0201219140400980004E
:1009D00000F1E020C0F8001170470000F0B40E4BA9
:1009E0001B680C46C3F30223C3F10705042D00D98D
:1009F0000425191D072901D2002300E0DB1E012672
:100A000006FA05F1491E214099409E40761E164087
:100A10003143F0BC01F0C2B80CED00E0064900F033
:100A2000070208684FF6FF03184040EA0220034A15
:100A300010430860704700000CED00E00000FA056C
:100A40002DE9F0470F46050061D0434E306800F0B5
:100A50000700B84209D2306820F007003843306000
:100A6000306800F00700B84251D128683B4C81073C
:100A700012D5400703D5606840F4E06060602878D4
:100A8000000703D5606840F4605060606068A96842
:100A900020F0F000084360602878C00728D068681C
:100AA000012810D02168022810D0890700292EDAE9
:100AB000616821F0030101436160FFF723FF804675
:100AC00041F288390DE021688903EFE78901EDE7FC
:100AD000FFF718FFA0EB0801494502D90320BDE844
:100AE000F0876068696800F00C00B0EB810FEFD10F
:100AF000306800F00700B8420BD9306820F00700DA
:100B000038433060306800F00700B84201D001205F
:100B1000E5E72878400705D56068E96820F4E060DB
:100B2000084360602878000706D56068296920F4CA
:100B3000605040EAC100606000F018F86168084A3F
:100B4000C1F30311515CC8400649086006480068BB
:100B5000FFF7F8FE0020C2E700200240001002402C
:100B6000F81C00080C0000200400002012A185B031
:100B70000FC98DE80F0014A0144A00680490516852
:100B8000134801F00C03042B10D0082B0ED1C1F335
:100B90008343C9031DF803000AD5516804AAC1F3B1
:100BA0004041515C0A4A5043B0FBF1F005B0704738
:100BB00008494843FAE7000002030405060708094C
:100BC0000A0B0C0D0E0F1010010200000010024065
:100BD00000127A0000093D002DE9F84F040070D0A2
:100BE0002078C04DC00749D06868C0F38100012853
:100BF00007D06868C0F38100022809D16868C00383
:100C000006D52868800339D560680028E7D035E02C
:100C10006068B0F5803F0BD010B1B0F5A02F11D0B7
:100C2000286820F480302860286820F4802002E0C2
:100C3000286840F480302860606890B1FFF762FE59
:100C400006460AE0286840F480202860F0E700BFEC
:100C5000FFF758FE801B642873D828688003F7D5F7
:100C60000CE0FFF74FFE064605E000BFFFF74AFE27
:100C7000801B6428F0D828688003F7D420789A4E27
:100C800080074FF001094FF0000839D5686810F06F
:100C90000C0F07D06868C0F38100022809D168688A
:100CA000C00306D42868800714D52069012808D11C
:100CB00010E02069B0B1C6F80090FFF723FE0746A8
:100CC00005E00AE1FFF71EFEC01B0228C4D8286811
:100CD0008007F7D52868616920F0F80040EAC10074
:100CE00028600DE0C6F80080FFF70CFE074604E020
:100CF000FFF708FEC01B022823D828688007F7D416
:100D0000207800072CD57948A169D9B1C0F80090A6
:100D1000FFF7F8FD074604E0FFF7F4FDC01B0228CB
:100D20000FD8686A8007F7D571484FF4FA51006808
:100D3000B0FBF1F0009000BF0098411E0091FAD284
:100D40000EE080E0C0F80080FFF7DCFD074604E01D
:100D5000FFF7D8FDC01B022875D8686A8007F7D452
:100D60002078400760D5E8690027C00008D4E8690A
:100D700040F08050E861E869012700F08050009061
:100D80005C480168C90513D40168834641F4807149
:100D90000160FFF7B7FD824606E000BFFFF7B2FD36
:100DA000A0EB0A0064284ED8DBF80000C005F5D59A
:100DB000E06801280AD008B1052813D0286A20F07D
:100DC00001002862286A20F0040002E0286A40F04E
:100DD00001002862E06841F2883B98B1FFF792FD7C
:100DE00082460BE0286A40F004002862EEE700BF6C
:100DF000FFF788FDA0EB0A0159455AD8286A8007F9
:100E0000F6D50CE0FFF77EFD824605E0FFF77AFDA0
:100E1000A0EB0A0159454CD8286A8007F6D41FB1C7
:100E2000E86920F08050E861E06988B36968C1F33F
:100E30008101022944D00228C6F8608004D0FFF75F
:100E400061FD044638E034E0FFF75CFD074604E04E
:100E5000FFF758FDC01B02282BD828688001F7D463
:100E6000206AB0F5803F05D16868A16820F40030A1
:100E700008436860D4E908010843696821F47411E3
:100E800008436860C6F86090FFF73CFD044606E042
:100E900025E000BFFFF736FD001B022809D82868AF
:100EA0008001F7D51BE000BFFFF72CFD001B0228D7
:100EB00002D90320BDE8F88F28688001F4D40EE041
:100EC0000128F7D06868226A00F48031914204D189
:100ED000616A00F47010884201D00120EAE7002026
:100EE000E8E7000000100240000042428004424255
:100EF0000C0000200070004010B5401EB0F1807F53
:100F000001D3012010BD4FF0E02460610F21601774
:100F100000F044FE0020A06107202061002010BDE9
:100F20007047704770B590F83C20012A2CD00124FE
:100F300080F83C40022280F83D2003685A689D6892
:100F400022F070060A6832435A60104B02689A42D7
:100F50000ED00F4B9A420BD0B2F1804F08D00D4B00
:100F60009A4205D00C4B9A4202D00C4B9A4204D1C3
:100F7000496825F080031943916080F83D400021C5
:100F800080F83C10084670BD022070BD002C014066
:100F9000003401400004004000080040000C004004
:100FA00090F83D00704710B5040003D094F83D0060
:100FB00010B107E0012010BD002084F83C0020465D
:100FC00000F01EF8022084F83D00211D206800F08A
:100FD00099FC012084F8460084F83E0084F83F0024
:100FE00084F8400084F8410084F8420084F843000B
:100FF00084F8440084F8450084F83D00002010BDCA
:1010000008B5154A0168154891420ED1C16941F0F1
:101010000201C161C069002200F002000090114687
:101020001D20FFF7DBFC1D2010E00D4A914211D17D
:10103000C16941F00401C161C069002200F00400EF
:10104000009011461E20FFF7C9FC1E20BDE8084095
:10105000FFF7B6BC08BD00000004004000100240CD
:101060000008004090F83D10012901D00120704790
:10107000022180F83D100168CA6842F00102CA608E
:1010800000680E4988420ED00D4988420BD0B0F15D
:10109000804F08D00B49884205D00B49884202D0C6
:1010A0000A49884204D1816801F00701062903D06A
:1010B000016841F00101016000207047002C0140EF
:1010C000003401400004004000080040000C0040D3
:1010D0000168CA6822F00102CA6001680A6A41F226
:1010E00011131A4207D10A6A9B101A4203D10A68E7
:1010F00022F001020A60012180F83D1000207047B3
:1011000070B5044690F83C00012817D0012584F8FA
:101110003C50022084F83D002068826822F077026B
:1011200022F47F4282600868502830D00DDC2028ED
:101130004DD005DC98B310283BD148E0022070BDAB
:10114000302844D0402834D139E0602828D0702895
:1011500006D0B0F5805F2CD0B0F5005F29D10AE051
:10116000CB68D1E90121206800F01FFC206881686C
:1011700041F0770109E0CB68D1E90121206800F056
:1011800014FC2068816841F48041816011E0CA68E4
:101190004968206800F0DEFC5021206807E016E076
:1011A000CA684968206800F0E6FC6021206800F009
:1011B00006FC84F83D50002084F83C0070BDCA68ED
:1011C0004968206800F0C6FC40212068EFE72268EB
:1011D00001461046EBE7704770B5044600680169A8
:1011E0004FF00005C943890715D4C168C943890771
:1011F00011D4E91E016101202077206880698007F1
:10120000204602D0FFF7E7FF04E000F0BFF82046D9
:1012100000F04EF9257720680169C943490717D4C2
:10122000C168C943490713D46FF00401016102206A
:1012300020772068806910F4407F204602D0FFF7B5
:10124000CAFF04E000F0A2F8204600F031F925774B
:1012500020680169C943090716D4C168C943090751
:1012600012D46FF008010161042020772068C06962
:101270008007204602D0FFF7AEFF04E000F086F8BA
:10128000204600F015F9257720680169C943C90691
:1012900017D4C168C943C90613D46FF010010161A6
:1012A000082020772068C06910F4407F204602D0D3
:1012B000FFF791FF04E000F069F8204600F0F8F82D
:1012C000257720680169C943C90708D1C168C943A6
:1012D000C90704D1891E0161204600F083F9206806
:1012E0000169C943090609D4C168C943090605D47F
:1012F0006FF0800101612046FFF712FE206801694E
:10130000C943490609D4C168C943490605D46FF0E9
:1013100040010161204600F0A3F920680169C9433A
:1013200089060BD4C168C943890607D46FF0200130
:1013300001612046BDE87040FFF7F3BD70BD0000BD
:1013400000B585B0002100910191029103910068E0
:101350000B49884211D10B48816941F00401816138
:101360008069694600F004000490C02000900220CB
:10137000019003900448FFF7C3F905B000BD0000D9
:10138000000400400010024000080140704770B5A2
:10139000044690F83C000D4601280AD0012084F84C
:1013A0003C0042B1042A18D0082A2AD00C2A4DD178
:1013B00039E0022070BD206800F00AFB20688169D6
:1013C00041F0080181612068816921F00401816197
:1013D000206881692A69114311E0206800F028FB28
:1013E0002068816941F4006181612068816921F48C
:1013F00080618161206881692A6941EA02218161F5
:1014000024E0206800F04AFB2068C16941F008012F
:10141000C1612068C16921F00401C1612068C1690E
:101420002A69114311E0206800F06CFB2068C16953
:1014300041F40061C1612068C16921F48061C1612A
:101440002068C1692A6941EA0221C161002084F84B
:101450003C0070BD10B5040003D094F83D0010B1FD
:1014600007E0012010BD002084F83C00204600F079
:101470001EF8022084F83D00211D206800F042FA89
:10148000012084F8460084F83E0084F83F0084F888
:10149000400084F8410084F8420084F8430084F856
:1014A000440084F8450084F83D00002010BD7047DA
:1014B0007047000010B50446022249B104290ED03D
:1014C000082913D094F84100012816D0012010BD3E
:1014D00094F83E000128F9D184F83E200FE094F8FA
:1014E0003F000128F2D184F83F2008E094F8400042
:1014F0000128EBD184F8402001E084F8412001224A
:10150000206800F045FA13492068134A884201D048
:10151000904203D1436C43F4004343642068884203
:101520000DD090420BD0B0F1804F08D00B498842CB
:1015300005D00B49884202D00A49884204D181680B
:1015400001F00701062903D0016841F001010160A3
:10155000002010BD002C0140003401400004004078
:1015600000080040000C004030B504460D460068FD
:10157000002200F00DFA194B41F2111120688A1077
:10158000984202D0164B984209D1036A0B4206D109
:10159000036A134203D1436C23F40043436420687D
:1015A000036A0B4206D1016A114203D1016821F09E
:1015B0000101016001203DB1042D08D0082D09D0A2
:1015C00084F84100002030BD84F83E00FAE784F83A
:1015D0003F00F7E784F84000F4E70000002C0140EA
:1015E0000034014070B5184988422BD1174C4FF494
:1015F00000022169914201DB084601E081F00040D0
:10160000134B984208DC00211248FFF7ADFFBDE8FC
:1016100070400D48FFF75CBD0C480F4D0F4E406801
:10162000914206DBFEF7C1FE2A463346FEF716FE60
:1016300005E0FEF7BAFE2A463346FEF7B0FEFEF797
:10164000C7FE606070BD00005C000020A4000020A8
:101650006666E63D14000020CDCCCCCCCCCCBC3FA3
:101660007047FEE710B586B0002000900190029010
:1016700003901148816941F080018161816901F025
:1016800080010491816941F00401816180690B4C02
:1016900000F004000122049011462046FFF72CF9C7
:1016A0000121009101910291039169462046FFF7C3
:1016B00027F806B010BD000000100240001C0140D9
:1016C00010B58EB000240794089409940A940B94E2
:1016D0001C2168460C94FEF75EFD234821490160F9
:1016E0004721C0E9011441F28731C0E90314802188
:1016F0008161FFF758FC08B1FFF701F84FF4805003
:10170000079007A91848FFF7FBFC08B1FEF7F7FFA1
:101710001548FFF79FFE08B1FEF7F1FF0B940BA9E8
:1017200011480C94FFF7FEFB08B1FEF7E8FF6020BC
:10173000CDE900040294002269460B480494FFF7A7
:1017400026FE08B1FEF7DBFF042269460648FFF7D4
:101750001EFE08B1FEF7D3FF0348FFF7F1FD0EB000
:1017600010BD0000000400401400002010B586B039
:10177000002417480094019402940394049413499C
:10178000059401604721C0E9011443F69721C0E99F
:10179000031480218161FFF706FC08B1FEF7AFFF5B
:1017A0004FF48050009069460948FFF7A9FC08B142
:1017B000FEF7A5FF049404A905480594FFF7B2FBC2
:1017C000002801D0FEF79BFF06B010BD00080040C6
:1017D0005C000020FEE770477047704770B5054613
:1017E0000068FEF7E2FD194A194B00F003FAFEF714
:1017F000EFFD184C0146E0602868FEF729FD2860DF
:10180000A0606168FEF724FD134D144B2061A842CF
:1018100001DD002203E01249884204D301220121A4
:101820001846FFF769F82069B0F5000F01DA80F07B
:101830000040A84208DD0B48FFF714FCBDE87040EB
:1018400000210948FFF736BE70BD0000CDCCCCCCDE
:10185000CCCCBC3FA40000206666E63D001C0140E5
:101860006666E6BD5C0000201400002003480021ED
:1018700001604160C160816001617047A400002087
:10188000FFF746B830B58FB028216846FEF783FCD5
:1018900014210AA8FEF77FFC01210804CDE90010FD
:1018A0000024029402250491CDE907504FF4E01082
:1018B00009906846FFF790F90F20CDE90A05680204
:1018C000CDE90C4002210AA80E94FFF7B9F80FB039
:1018D00030BD70470148FFF77FBC000014000020B6
:1018E00010B50648FFF75CFB012802D104490968DE
:1018F0004863BDE810400148FFF76EBC5C00002063
:1019000014000020F0B502681C4B1D4D1D4E1E4FEB
:101910001E4C4FF0804C984209D0A04207D0604541
:1019200005D0A84203D0B04201D0B84204D122F081
:10193000700E4A6842EA0E02984209D0A04207D0CF
:10194000604505D0A84203D0B04201D0B84203D1CF
:1019500022F44075CA682A434D6922F080022A4366
:1019600002608A68C2620A688262984201D0A0421C
:1019700001D10969016301214161F0BD002C0140E1
:101980000004004000080040000C0040003401400A
:1019900010B501F01F030121046A99408C430462D1
:1019A000016A9A401143016210BD10B5846842EA91
:1019B000032224F47F440A432243826010BD8268DC
:1019C00022F070020A4342F0070181607047000074
:1019D000F0B5026A22F001020262036A4268846979
:1019E000124E24F073050C682C4323F002058B681B
:1019F0002B430D4DA84201D0B04205D123F008077A
:101A0000CB683B4323F00403A84201D0B04205D188
:101A10004D6922F4407215438A692A434260846109
:101A2000496841630362F0BD002C0140003401406D
:101A3000F0B5026A22F010020262026A4368846909
:101A40000D6824F4E64444EA05248D6822F020025F
:101A500042EA05120F4D104EA84201D0B04206D105
:101A6000CF6822F0800242EA071222F04002A84228
:101A700001D0B04207D14D6923F4406343EA8503A6
:101A80008D6943EA8503436084614968816302622A
:101A9000F0BD0000002C014000340140F0B5026AA6
:101AA00022F480720262026A4368C46922F40072FE
:101AB00024F073050C68124E2C438D6842EA05220F
:101AC0000E4DA84201D0B04206D1CF6822F4006288
:101AD00042EA072222F48062A84201D0B04207D134
:101AE0004D6923F4405343EA05138D6943EA051316
:101AF0004360C4614968C1630262F0BD002C0140CB
:101B00000034014030B5026A22F480520262046A55
:101B10004268C3690D6823F4E64343EA05238D68F0
:101B200024F4005444EA0534084DA84202D0084D7C
:101B3000A84204D14D6922F4804242EA85124260F3
:101B4000C36149680164046230BD0000002C01409B
:101B50000034014010B5036A046A24F001040462F1
:101B6000846924F0F00444EA021423F00A020A43D0
:101B70008461026210BD10B5036A23F01003036292
:101B80008369046A23F4704343EA023224F0A00319
:101B900043EA01118261016210BDFEE70907090EE7
:101BA000002804DB00F1E02080F80014704700F00A
:101BB0000F0000F1E02080F8141D7047002213464A
:101BC00010461146FEF72ABD02E008C8121F08C1E0
:101BD000002AFAD170477047002001E001C1121FAE
:101BE000002AFBD1704700000149086070470000DF
:101BF0001000002070B514461D460E46002814BF84
:101C000001210021314321F00041C1F17F6101F147
:101C1000E041C90F16D1002C14BF01210021294336
:101C200021F00041C1F17F6101F1E041C90F09D10B
:101C30001449B1EB460F08BF00281CD0690008BF4B
:101C4000002C18D03146FEF794FC024640F2FF709B
:101C500030EA11500DD0F017B0EBE17F09D0084603
:101C600065F31E0084460B4620466146FEF79AFB4C
:101C70000246104670BD0120FFF7B6FFBDE8704078
:101C8000FFF79CBF0000E0FF08B500200090FEF7C2
:101C900047FEFFF7F7FDFFF7E5FCFFF711FDFFF744
:101CA00065FD1248FFF77FF910480068C16841F0F0
:101CB0000101C1600D48FFF7D5F900210B48FFF77E
:101CC000F9FB0B48FFF76FF909480068C16841F05C
:101CD0000101C1600648FFF7C5F9FFF7C7FD054CD4
:101CE00068460094FFF77AFDFAE700001400002030
:101CF0005C0000200000B442000000000000000072
:101D00000102030406070809281D0008000000203E
:101D100014000000C81B00083C1D0008140000202F
:101D2000A4040000D81B00080100000010000000FF
:0C1D3000000000000024F400000000008F
:0400000508000131BD
:00000001FF
