:020000040800F2
:10000000281F0020C1010008272B00081127000825
:10001000252B000889060008D532000800000000E2
:100020000000000000000000000000002B2B000872
:10003000210A000800000000292B0008992B000865
:10004000DB010008DB010008DB010008DB01000820
:10005000DB010008DB010008DB010008DB01000810
:10006000DB010008DB010008DB010008DB01000800
:10007000DB010008DB010008DB010008DB010008F0
:10008000DB010008DB010008DB010008DB010008E0
:100090008D060008DB010008DB010008DB01000819
:1000A000DB0100083D2C0008DB010008DB01000833
:1000B000992C0008DB010008152D0008DB01000861
:1000C000DB010008DB010008DB010008DB010008A0
:1000D000DB010008B1320008DB010008DB01000889
:1000E000DB010008DB010008DB010008DB01000880
:1000F000DB010008DB010008DB010008DB01000870
:10010000DB010008DB010008212D0008DB010008ED
:10011000DB010008DB010008DB010008DB0100084F
:10012000DB010008F907000805080008DB010008EA
:10013000DB010008DB010008DB010008DB0100082F
:10014000DB010008DB010008DB010008DB0100081F
:10015000DB010008110800081D080008C93200086A
:10016000DB010008DB010008DB010008DB010008FF
:10017000DB010008DB010008DB01000800000000D3
:10018000DB010008DB010008DB010008DB010008DF
:10019000DB010008DB010008DB010008DB010008CF
:1001A0000000000000000000DB010008DFF80CD0B8
:1001B00000F008FA0048004771330008281F0020AB
:1001C0000648804706480047FEE7FEE7FEE7FEE7F1
:1001D000FEE7FEE7FEE7FEE7FEE7FEE7212C00086C
:1001E000AD0100082DE9F05F0546002092469B46D0
:1001F00088460646814640241BE02846414647463D
:10020000224600F029F953465A46C01A914110D3AC
:1002100011461846224600F010F92D1A67EB010826
:100220004F4622460120002100F007F917EB000994
:100230004E41201EA4F10104DFDC484631462A4627
:100240004346BDE8F09F40EA01039B0703D009E065
:1002500008C9121F08C0042AFAD203E011F8013BB2
:1002600000F8013B521EF9D27047D2B201E000F80B
:10027000012B491EFBD270470022F6E710B513464A
:100280000A4604461946FFF7F0FF204610BD2DE947
:10029000FE4F804681EA0300C00F0C46009021F01B
:1002A000004123F00045B8EB0200A94105D24046C9
:1002B000214690461C460B46024623F00040104360
:1002C00047D0270DC7F30A00C3F30A510290401A22
:1002D000019040286BDAC3F3130040F4801B0098B0
:1002E000924620B10023D2EB030A63EB0B0B01987B
:1002F0005946C0F14002504600F09FF806460D46B0
:1003000050465946019A00F0B7F810EB08006141D9
:10031000002487EA115284EAE7731A4340D0009A16
:1003200062B3019A012A4FEA075215DC001B61EB08
:1003300002014FF0004202EA0752CDE90042001CE0
:1003400041F5801132462B4600F0EEF803B0BDE8CF
:10035000F08F40462146F9E7001B61EB0201001CCB
:1003600041F5801300185B412018A2F5001747EBF8
:10037000030140EAD570B6196D4111E06D084FEAEE
:10038000360645EAC0754FEA0752001B61EB0201D1
:10039000001C41F5801149084FEA30000019514115
:1003A00032462B4603B0BDE8F04F00F0AEB80098DF
:1003B000012240000023D0EB020263EBE0730098BF
:1003C00021464FEAE074B8EB000061EB0401E9E775
:1003D00083F000435BE781F0004158E700F0004202
:1003E00030F000400AD0C10D01F56071C0F3160075
:1003F00042EA0151C20840071143704700200146FC
:10040000704701F0004330B421F0004150EA01028E
:1004100006D00A0DA2F56072C1F31301002A02DCB6
:1004200030BC00207047440F44EAC104C100E0180A
:1004300030BC00EBC25000F031B8202A04DB203A77
:1004400000FA02F1002070479140C2F1200320FA27
:1004500003F3194390407047202A04DB203A21FA25
:1004600002F00021704721FA02F3D040C2F12002CD
:100470009140084319467047202A06DBCB17203AE3
:1004800041FA02F043EAE07306E041FA02F3D04099
:10049000C2F1200291400843194670470029A8BFC5
:1004A0007047401C490008BF20F00100704710B49D
:1004B000B0FA80FC00FA0CF050EA010404BF10BC52
:1004C000704749B1CCF1200421FA04F411FA0CF17F
:1004D00018BF012121430843A3EB0C01CB1D4FEAB8
:1004E00000614FEA102042BF002010BC704700EBB3
:1004F000C35010440029A4BF10BC7047401C4900E1
:1005000008BF20F0010010BC704710B5141E73F135
:10051000000408DA401C41F1000192185B411A43C3
:1005200001D120F0010010BD2DE9F04D92469B460F
:1005300011B1B1FA81F202E0B0FA80F220329046B5
:10054000FFF77BFF04460F4640EA0A0041EA0B0131
:1005500053465A46084313D0114653EA010019D0B6
:10056000C8F140025046FFF777FF05460E46504659
:1005700059464246FFF761FF084305D0012004E0D9
:1005800020463946BDE8F08D0020054346EAE07676
:100590002C4337430A986305E40AA0EB08000022C5
:1005A000FD0A44EA47540A3002D500200146E9E733
:1005B000010510196941DDE9084500196941BDE8E7
:1005C000F04DA2E7064C074D06E0E06840F001035D
:1005D00094E8070098471034AC42F6D3FFF7EAFDE1
:1005E000EC3400080C3500080348AA210170FF21F3
:1005F00041700821C17070477403002010B50E4C83
:10060000AA202070FF206070FB20A0700020E07006
:1006100020686060204602F089FA08490028487086
:1006200008D00622211DBDE810404FF6FF73044894
:1006300002F010B810BD0000740300201400002068
:10064000B401002010B50D4CA070E270206860600D
:1006500004F10800FFF7F7FD204602F067FA0849A9
:100660000028087009D0E278211DBDE810404FF63F
:10067000FF730448921D01F0EDBF10BD740300200C
:1006800014000020B4010020FEE7000030B59BB04C
:100690000021314810AA17AB00F0AFFA10982F498B
:1006A000A0F20120072827D8BDF85C20C0B253BAB9
:1006B00001EBC002F1EE040AD380BDF85E305BBAF4
:1006C00021F83030BDF8600040BA00B200EE100AE8
:1006D000B8EEC00A20EE200ADFED210A20EE200A43
:1006E000DFED200A20EE200ABDEEC00A10EE100A4F
:1006F00050809DF8620090801B4C002001EBC003ED
:1007000095224243DD8824F8225031F8305004EB22
:100710008202401C55805D8895801B799371082862
:10072000ECDB02F0D9FD0020952100FB01F204EB87
:100730008201401C4B89C3EB433534F82230EA1860
:100740004A87A1F87A200B810828EDDB024800F0E7
:10075000C8FA1BB030BD000038000020820700201E
:100760000000803800004842C40700200FB4002079
:1007700010B50E210290CDE9060101210590CDE9C9
:100780000A1003900490CDE9080102A9024800F084
:10079000ADF910BC5DF814FB38000020F8B50D462B
:1007A000DDE90641012600968562002508260563DD
:1007B000C0E90D5680F83C50150A80F8645080F866
:1007C00065201A0A80F8662080F86730220A80F8CF
:1007D000682080F869400A0A80F86A2080F86B1067
:1007E00000F1640200F128016B46024800F01AF99A
:1007F000F8BD000038000020014800F085BC000072
:10080000B4020020014800F07FBC0000F401002089
:10081000014800F079BC000014030020014800F0FA
:1008200073BC00005402002001681823CAB2103AB9
:10083000B2FBF3F2054B6FF30901032A9B5CC3651E
:1008400000D9091D8165084670470000CC340008B6
:1008500010B5014600208B698A6A4FF0C07453B10D
:10086000B3F5005F15D072B1012A0CD0022A0AD06C
:10087000032A09D104E01AB1012A06D0022A03D1C1
:10088000C96AC90100D5012010BDC96AA142FAD0C8
:1008900010BD002AF7D0012AF2D0022AF3D0032A91
:1008A000F3D010BD30B50468256825F48025256097
:1008B000046863608368402B036803D09960006814
:1008C000C26030BD9A600068C16030BDF0B50028DC
:1008D00077D00188C1F30A053A490D8042788378C0
:1008E000D20842EA4312C2F30A044C808278C378E9
:1008F000920942EA83020379A5F5806542EA8322E0
:10090000C2F30A038B8002794679520842EAC61282
:10091000C2F30A02CA804679A4F58064B6090E7251
:100920004779A3F58063C7F301174F72C7888F819A
:100930000789CF8147890F82077B8F74477BCF74EC
:10094000C7898F82008ACF8AC0F30A007F1CCF82BA
:100950000D804C808B80A2F58062CA80A0F58060FB
:10096000002714354881282D00D80F801434282CF6
:1009700000D84F801433282B00D88F8014302828BB
:1009800000D84F811048012E04D0022E19D0032E1A
:1009900017D109E002EB82014900C1814FF6F673DD
:1009A00002FB03F1A0F8621202EB820149004FF64C
:1009B000F673C1815A43A0F86222A0F80A17A0F882
:1009C0005E29F0BD18000020C407002038B5044699
:1009D00000680168C9061ED5C168C9061BD5016833
:1009E00040680090606B0068016821F001010160BF
:1009F000606B00684068042803D10748C169074854
:100A00008847616B162009684860606B0068016860
:100A100041F00101016038BD180000200C1B0020CE
:100A200070477047F0B590F820500468A468012D15
:100A300005D0022D03D0416A41F4802153E014F027
:100A4000406F01D1E5004BD5C4F30164022C03D9FA
:100A5000416A41F4000146E00125A5401D608D6812
:100A60004FF4C0739DB1CE6835434E6845EAC60564
:100A7000066803EB0417F5514FF4C275076805EBE0
:100A800004150E697E51097D012905D009E00E8803
:100A9000CD6845EA4655EBE701684E5946F4807645
:100AA0004E511179D2F805504FF4C67641EA05252A
:100AB000016806EB04168D511178D2F801204FF42D
:100AC000C47541EA0221026805EB04155151006822
:100AD00003EB0411425842F0010242500020F0BDE5
:100AE000416A41F4001141620120F0BD10B590F857
:100AF0002020012A07D0022A05D0416A41F4802132
:100B00004162012010BD3B48D0F8002242F00102B2
:100B1000C0F80022D0F8002222F47C52C0F8002253
:100B2000D0F800224B6A42EA0322C0F800220A7D74
:100B300002F01F0301229A40D0F81C329343C0F800
:100B40001C32CB69B3B9D0F80C329343C0F80C32E5
:100B50008C894B6864F31F434C6900EBC404C4F8F0
:100B600040320C890B6864F31F434C6900EBC404EA
:100B7000C4F84432CB69012B16D1D0F80C321343A0
:100B8000C0F80C320C884B6864F31F434C6900EBCF
:100B9000C404C4F840320C89CB6864F31F434C6929
:100BA00000EBC404C4F844328B69002BD0F8043243
:100BB0000ED01343C0F804320B69002BD0F8143266
:100BC00008D01343C0F81432096A012904D008E0A0
:100BD0009343EFE79343F5E7D0F81C121143C0F8B5
:100BE0001C12D0F8001221F00101C0F80012002000
:100BF00010BD000000640040704730B590F8204000
:100C0000012C05D0022C03D0416A41F480215DE023
:100C10000468002955D02469A40754D04FF4D8742F
:100C2000056804EB01142D5915F00405956005685D
:100C30002D594ED0ED08556005682C5904F002047A
:100C4000D4604FF4DA74056804EB01142D5905F0F3
:100C50000F05156105682D59C5F3072595610568D0
:100C60002C59240C54614FF4DC72046802EB01121D
:100C7000A4581C700468A458240A5C700468A45822
:100C8000240C9C700468A258120EDA704FF4DE72C5
:100C9000046802EB0112A4581C710468A458240AC9
:100CA0005C710468A458240C9C710468A258120E4C
:100CB000DA71006881B1016941F020010161002011
:100CC00030BDE468A8E7416A41F4001141620120A7
:100CD00030BD6D0D1560AFE7C16841F02001C16006
:100CE000EDE72DE9F05F0546006800244669D0F87D
:100CF00004908768D0F80CB0D0F810A0D0F8188015
:100D0000F10748D0F90714D001218160B80703D555
:100D1000284600F0E0F90CE0780702D54FF40064B3
:100D200007E0380702D54FF4805402E0284600F06F
:100D3000D1F9F80516D529684FF480708860B80598
:100D400003D5284600F0C9F90CE0780502D544F433
:100D5000005407E0380502D544F4804402E02846F8
:100D600000F0BAF9F80316D529684FF4803088608E
:100D7000B80303D5284600F0B2F90CE0780302D599
:100D800044F4004407E0380302D544F4803402E020
:100D9000284600F0A3F9300707D55FEACB6004D5F9
:100DA0002968102044F40074C86070074FF00807E9
:100DB00007D55FEA0B7004D52868C760284600F0A5
:100DC00057F9B00706D52868C068800702D02846C2
:100DD00000F04FF9700607D55FEACA6004D52968AC
:100DE000102044F480640861B00607D55FEA0A70F9
:100DF00004D528680761284600F03CF9F00606D5BE
:100E000028680069800702D0284600F034F9B00352
:100E100008D55FEAC96005D52968102048602846D2
:100E200000F02AF9F00307D55FEA097004D52868B5
:100E30004760284600F054F9300446D55FEA49700F
:100E400040D5F00504D55FEAC87001D044F0010434
:100E5000B00504D55FEA887001D544F0020470053E
:100E600004D55FEA487001D544F00404300529D563
:100E700018F0700F26D008F07000402815D006DC5E
:100E8000102809D020280AD0302816D10AE050288E
:100E90000ED0602811D10EE044F008040DE044F0BB
:100EA00010040AE044F0200407E044F0400404E0A9
:100EB00044F0800401E044F480742868816921F0E2
:100EC00070018161296804204860002C05D0686A9F
:100ED000204368622846FFF78FFEBDE8F09F70B59B
:100EE000040003D094F8200010B104E0012070BD8C
:100EF000204600F081F82068016821F002010160BD
:100F000000F050FB0546052604E000F04BFB401BBB
:100F10000A2811D8206840688007F6D42068016844
:100F200041F00101016000F03DFB05460BE000F0DF
:100F300039FB401B0A2806D9606A40F40030606221
:100F400084F82060D2E720684068C007EFD0207E98
:100F50000128206801683DD021F080010160607E99
:100F600001282068016838D021F040010160A07E8E
:100F700001282068016833D021F020010160E07E63
:100F80000128206801682ED041F010010160207F07
:100F900001282068016829D021F008010160607FE4
:100FA00001282068016824D021F004010160D4E9FF
:100FB00002010843D4E90412114308436168491E41
:100FC00008432168C86100206062012084F8200085
:100FD000002070BD41F08001C0E741F04001C5E74D
:100FE00041F02001CAE721F01001CFE741F00801EC
:100FF000D4E741F00401D9E710B586B004461421C6
:101000006846FFF739F917492068884227D1164802
:101010000021026842F000720260006800F0007077
:10102000059011481038026842F00802026000681A
:10103000022200F0080005900320CDE90210CDE95E
:101040000002092004906946084800F0BBF900221C
:101050001146142000F014FB142000F003FB06B02E
:1010600010BD00000064004040380240000C024007
:1010700070477047704770477047000070B504466E
:1010800090F82000012804D0606A40F400206062DB
:1010900018E0022084F820002068016821F0010196
:1010A000016000F07FFA05460EE000BF00F07AFA1A
:1010B000401B0A2808D9606A40F4003060620520AD
:1010C00084F82000012070BD20684068C007EDD181
:1010D000606270BD704770477047704770477047D7
:1010E000704790F83510022903D080214165012016
:1010F0007047052180F835100068016821F0010172
:1011000001600020704700002DE9F84304464FF0CD
:101110000009CDF8009063484FF41651A56D0068A2
:10112000B0FBF1F72E6894F85C10082000FA01F18A
:1011300031420FD021680A6852070BD50A6822F0A5
:1011400004020A6094F85C108840A860606D40F06A
:101150000100606594F85C104FF0010808FA01F096
:10116000304208D021684969090604D5A860606D3D
:1011700040F00200606594F85C1004208840304222
:1011800008D021680968890704D5A860606D40F01F
:101190000400606594F85C1010208840304218D03C
:1011A00021680968090714D5A86020680168490307
:1011B00004D50068000308D5A16C07E00168C905E3
:1011C00003D4016821F008010160216C09B12046B7
:1011D000884794F85C1020208840304231D0216844
:1011E0000968C9062DD5A86094F83500052820683F
:1011F000016806D0490347D5006800031DD4616C1F
:101200001CE021F0160101602068416921F0800195
:101210004161206C08B9A06C20B12068016821F000
:101220000801016094F85C103F208840A86084F8B1
:10123000349084F83580216D1FE0E16B09B12046C0
:101240008847606D00282BD0606DC00714D0052042
:1012500084F835002068016821F0010101600098E0
:10126000401C0090B84203D820680068C007F6D13F
:1012700084F8349084F83580E16C002910D001B0F6
:101280002046BDE8F04308470168C905D5D4016888
:1012900021F01001016084F8349084F83580CCE7A7
:1012A000BDE8F883100000202DE9F041044600F06D
:1012B00079F906465CB1002584F83450022084F8A0
:1012C00035002068016821F0010101600DE0012076
:1012D000BDE8F08100F066F9801B052805D92020C3
:1012E0006065032084F83500F2E720680068C007D5
:1012F000F0D12268116820480140D4E90103184365
:10130000D4E903363343184363691843A369184388
:10131000E3691843236A18430843616A042903D127
:10132000D4E90B1319430843106020684069666ACA
:1013300020F0070130460E43012704280CD1A06A93
:101340000643E06A40B12046FFF782FA20B1402010
:10135000606584F83570BAE7206846612046FFF77B
:1013600063FA94F85C203F2191408160656584F8C0
:1013700035700020ACE700003F8010F070B50446E7
:1013800090F83400002501280CD0012084F83400A6
:1013900094F835600020012E06D084F83400022530
:1013A000284670BD022070BD022684F83560606555
:1013B0002046FFF777FA2068016841F001010160DB
:1013C000EEE700002DE9F84F00224FF00108032559
:1013D0004FF00F0E0B6808FA02F42340A3426ED1BF
:1013E0004E68012E05D0022E03D0112E01D0122EF0
:1013F00012D186684FEA420C05FA0CF7BE43CF685B
:1014000007FA0CF7374387604668A6430C79C4F3A4
:101410000014944034434460C668570005FA07FC42
:101420008C6826EA0C06BC403443C4604C68022C2D
:1014300001D0122C13D1D40800EB8404A346D4F8B5
:10144000209054074FEAD46A0EFA0AF629EA0609F0
:101450000E6906FA0AF646EA0906CBF82060046827
:101460000E7924EA0C0406F00306BE40264306600B
:101470004C68E4006FD53B4C266846F480462660F5
:10148000246822F0030604F480440094364C34446B
:10149000A446D4F808489607360F0EFA06F7BC4360
:1014A000324FB84201D100272EE0314FB84201D16E
:1014B000012729E02F4FB84202D1022724E04AE059
:1014C0002D4FB84201D103271EE02C4FB84201D165
:1014D000042719E02A4FB84201D1052714E0294F0B
:1014E000B84201D106270FE0274FB84201D10727A4
:1014F0000AE0264FB84201D1082705E0244FB84240
:1015000001D1092700E00A27B7402743CCF8087823
:10151000204E34684F689C43FF0300D51C43346061
:101520001C4E361D34684F689C43BF0300D51C43D6
:101530003460184E083634684F689C43FF0200D56B
:101540001C433460134E0C3634684F689C43BF0212
:1015500000D51C433460521C102AFFF43BAFBDE899
:10156000F88F000044380240003001400000024083
:101570000004024000080240000C0240001002403B
:101580000014024000180240001C024000200240EB
:1015900000240240003C01400AB181617047090407
:1015A000FBE700000148806870470000040000204D
:1015B000024881680278114481607047040000206D
:1015C0000B4810B5016841F400710160016841F4F5
:1015D00080610160016841F480710160032000F0C6
:1015E0006FF8002000F006F800F024F8002010BD8D
:1015F000003C024070B50D4D04464FF47A712878D6
:10160000B1FBF0F00A490968B1FBF0F000F004FB0F
:1016100048B9102C07D200222146501E00F030F8A5
:1016200000206C6070BD012070BD0000040000202F
:10163000100000200A4808B5016841F480410160AB
:10164000006800F4804000900548001F016841F0E8
:1016500080510160006800F08050009008BD0000DB
:1016600044380240002809DB00F01F0201219140AC
:101670004009800000F1E020C0F800117047000030
:10168000F0B40E4B1B680C46C3F30223C3F10705ED
:10169000042D00D90425191D072901D2002300E0DB
:1016A000DB1E012606FA05F1491E214099409E40A5
:1016B000761E16403143F0BC01F03ABE0CED00E05E
:1016C000064900F0070208684FF6FF03184040EA99
:1016D0000220034A10430860704700000CED00E050
:1016E0000000FA052DE9F0470E46050065D0DFF849
:1016F0001481D8F80000F7B200F00F00B04207D212
:1017000088F80070D8F8000000F00F00B04254D103
:1017100028683D4C810712D5400703D5206840F466
:10172000E05020602878000703D5206840F460402E
:1017300020602068A96820F0F00008432060287825
:10174000C0072DD0304968680839012812D0022816
:1017500013D0032811D00968890700292DDA2168E0
:1017600021F0030101432160FFF71CFF814641F294
:10177000883A0EE009688903EFE709688901ECE718
:10178000FFF710FFA0EB0901514502D90320BDE886
:10179000F0872068696800F00C00B0EB810FEFD192
:1017A000D8F80010404601F00F01B14207D9077088
:1017B000006800F00F00B04201D00120E7E7287870
:1017C000400705D52068E96820F4E0500843206010
:1017D0002878000706D52068296920F4604040EA8F
:1017E000C100206000F038F82168084AC1F30311F5
:1017F000515CC8400649086006480068FFF7FAFED9
:101800000020C4E7003C024008380240D4340008FD
:1018100010000020080000200448054900680968FD
:10182000044AC1F38221515CC84070471000002077
:1018300008380240E4340008044805490068096893
:10184000044AC1F34231515CC84070471000002087
:1018500008380240E4340008154810B5006810F05C
:101860000C02144813D01449042A0FD0082A0ED1B0
:101870000F4C241F2268236802F03F025B0207D549
:101880002068C0F38810A0FB010106E0084610BDE7
:101890002168C1F38811A1FB00010023FEF7A2FC1F
:1018A0002168C1F30141491C4900B0FBF1F010BDB2
:1018B000083802400024F400001BB7002DE9F84F5F
:1018C00004006ED02078DFF83C93C007A9F104052E
:1018D0004AD009F104000168C1F38101012908D04F
:1018E0000068C0F3810002280AD1D9F80000400244
:1018F00006D52868800337D560680028E1D033E03A
:101900006068B0F5803F10D0B0F5A02F286810D0E7
:1019100020F480302860286820F4802028606068E7
:10192000A8B1FFF73FFE06460DE0286840F480307E
:10193000F4E740F480202860F7E700BFFFF732FEAD
:10194000801B642873D828688003F7D50CE0FFF764
:1019500029FE064605E000BFFFF724FE801B642831
:10196000F0D828688003F7D42078DFF89C828007BD
:101970004FF0000A3ED5A348001D016811F00C0F7E
:1019800008D00068C0F3810002280BD1D9F800000C
:10199000400207D42868800716D5E068012800D1E6
:1019A00012E02BE1E068B8B10120C8F80000FFF7B1
:1019B000F9FD064605E000BFFFF7F4FD801B022895
:1019C000C0D828688007F7D52868216920F0F8007A
:1019D00040EAC10028600DE0C8F800A0FFF7E2FD72
:1019E000064604E0FFF7DEFD801B02281FD82868AA
:1019F0008007F7D42078000722D5824E834861699A
:101A0000703671B101210160FFF7CCFD074604E09B
:101A1000FFF7C8FDC01B022809D830688007F7D53A
:101A20000EE0C0F800A0FFF7BDFD074605E082E02C
:101A3000FFF7B8FDC01B02287DD830688007F7D4B7
:101A40002078400768D5DFF8BCB100270BF13C0BCC
:101A5000DBF80000C0000BD4DBF8001041F080512F
:101A6000CBF80010DBF80000012700F08050009058
:101A7000674E3068C00510D4306840F48070306024
:101A8000FFF790FD009005E0FFF78CFD0099401AEC
:101A9000022850D83068C005F6D55A4EA0686C367A
:101AA00001280FD00528306810D020F001003060E8
:101AB000306820F004003060A068B8B1FFF772FD14
:101AC00000900FE0306840F00100F4E740F00400BF
:101AD0003060F7E7FFF766FD0099411A41F2883060
:101AE000814266D830688007F4D50EE0FFF75AFDD2
:101AF000009007E0FFF756FD0099411A41F2883047
:101B0000814256D830688007F4D42FB1DBF800103A
:101B100021F08051CBF80010A069C8B33949091DE4
:101B20000968C1F3810102294AD00228504607D032
:101B3000C8F8600000E03CE0FFF734FD04463BE0FD
:101B40004746C8F86000FFF72DFD064605E000BFD8
:101B5000FFF728FD801B02282BD828688001F7D4C6
:101B6000D4E907010843A16A2A4A490802EB014166
:101B7000626A41EA8211084394F82C1040EA01613C
:101B8000C9F8001001203866FFF70CFD044606E096
:101B900036E000BFFFF706FD001B022809D82868C1
:101BA0008001F7D52CE000BFFFF7FCFC001B0228EA
:101BB00002D90320BDE8F88F28688001F4D41FE023
:101BC0000128F7D0D9F80000E26900F480019142C1
:101BD00014D1226A00F03F0191420FD147F6C07143
:101BE000626A0140914209D1A26A00F440319142F7
:101BF00004D1E16A00F07060884201D00120D9E789
:101C00000020D7E70438024000004742800E4742D8
:101C1000007000400000FFFF10B5401EB0F1807F53
:101C200001D3012010BD4FF0E02460610F21601747
:101C300001F07EFB0020A06107202061002010BD84
:101C40007047704770B590F83C20012A32D00124CB
:101C500080F83C40022280F83D2003685A689D6865
:101C600022F070060A6832435A60134B02689A42A7
:101C700014D0B2F1804F11D0104B9A420ED0104BBD
:101C80009A420BD00F4B9A4208D00F4B9A4205D084
:101C90000E4B9A4202D00E4B9A4204D1496825F06D
:101CA00080031943916080F83D40002180F83C108A
:101CB000084670BD022070BD0000014000040040D5
:101CC00000080040000C00400004014000400140BA
:101CD0000018004090F83D00704710B5040003D094
:101CE00094F83D0010B107E0012010BD002084F8F9
:101CF0003C00204600F00CF8022084F83D00211D35
:101D0000206801F013F8012084F83D00002010BD88
:101D100008B50168274881420FD12748016841F082
:101D2000010101600068002200F0010000901146EE
:101D30001920FFF7A5FC192036E01F48001FB1F15C
:101D4000804F11D01D4A91421DD1016841F004011C
:101D500001600068002200F00400009011461E207F
:101D6000FFF78EFC1E201FE0016841F001010160B9
:101D70000068002200F00100009011461C20FFF7CF
:101D80007FFC1C2010E00E4A914211D1016841F005
:101D9000080101600068002200F008000090114670
:101DA0003220FFF76DFC3220BDE80840FFF75ABC37
:101DB00008BD000000000140443802400008004017
:101DC000000C00400168CA6842F00102CA60006865
:101DD000816801F00701062903D0016841F0010183
:101DE0000160002070470168CA6822F00102CA60E1
:101DF0000068016A41F21112114207D1016A921082
:101E0000114203D1016821F00101016000207047F7
:101E100070B5044690F83C00012817D0012584F8DD
:101E20003C50022084F83D002068826822F077024E
:101E300022F47F4282600868502830D00DDC2028D0
:101E40004DD005DC98B310283BD148E0022070BD8E
:101E5000302844D0402834D139E0602828D0702878
:101E600006D0B0F5805F2CD0B0F5005F29D10AE034
:101E7000CB68D1E90121206800F0C9FF20688168A2
:101E800041F0770109E0CB68D1E90121206800F039
:101E9000BEFF2068816841F48041816011E0CA681A
:101EA0004968206801F088F85021206807E016E0B2
:101EB000CA684968206801F090F86021206800F045
:101EC000B0FF84F83D50002084F83C0070BDCA6823
:101ED0004968206801F070F840212068EFE7226827
:101EE00001461046EBE7704770B50446006801698B
:101EF0004FF00005C943890715D4C168C943890754
:101F000011D4E91E016101202077206880698007D3
:101F1000204602D0FFF7E7FF04E000F0C1F82046BA
:101F200000F043F9257720680169C943490717D4B0
:101F3000C168C943490713D46FF00401016102204D
:101F400020772068806910F4407F204602D0FFF798
:101F5000CAFF04E000F0A4F8204600F026F9257737
:101F600020680169C943090716D4C168C943090734
:101F700012D46FF008010161042020772068C06945
:101F80008007204602D0FFF7AEFF04E000F088F89B
:101F9000204600F00AF9257720680169C943C9067F
:101FA00017D4C168C943C90613D46FF01001016189
:101FB000082020772068C06910F4407F204602D0B6
:101FC000FFF791FF04E000F06BF8204600F0EDF819
:101FD000257720680169C943C90708D1C168C94389
:101FE000C90704D1891E0161204600F02FF920683D
:101FF0000169C943090609D4C168C943090605D462
:102000006FF0800101612046FFF71AFE2068016928
:10201000C943490609D4C168C943490605D46FF0CC
:1020200040010161204600F05DF920680169C94363
:1020300089060BD4C168C943890607D46FF0200113
:1020400001612046BDE87040FFF7FBBD70BD000098
:1020500010B586B0044614216846FEF70DF90D4907
:102060002068884214D10C480021026842F0010225
:102070000260006800F0010005900120009002203D
:10208000CDE90101CDE9031069460448FFF79AF94B
:1020900006B010BD000C0040303802400000024085
:1020A000704770B5044690F83C000D4601280DD0ED
:1020B000012684F83C60022084F83D0042B1042AE5
:1020C00018D0082A2AD00C2A4DD139E0022070BD40
:1020D000206800F0AFFE2068816941F0080181614D
:1020E0002068816921F004018161206881692A6981
:1020F000114311E0206800F0CDFE2068816941F4B1
:10210000006181612068816921F4806181612068BA
:1021100081692A6941EA0221816124E0206800F096
:10212000EFFE2068C16941F00801C1612068C16902
:1021300021F00401C1612068C1692A69114311E0DD
:10214000206800F011FF2068C16941F40061C1619D
:102150002068C16921F48061C1612068C1692A6970
:1021600041EA0221C16184F83D60002084F83C000E
:1021700070BD10B5040003D094F83D0010B107E025
:10218000012010BD002084F83C00204600F00CF82F
:10219000022084F83D00211D206800F0C7FD0120C9
:1021A00084F83D00002010BD7047704710B504460C
:1021B0000068012200F01EFE0B492068884202D010
:1021C0000A49884203D1416C41F4004141642068CE
:1021D000816801F00701062903D0016841F001017F
:1021E0000160002010BD000000000140000401401B
:1021F00010B504460068002200F0FCFD114841F2D1
:10220000111221689310814202D00F48814209D1F6
:10221000086A104206D1086A184203D1486C20F4BB
:10222000004048642068016A114206D1016A1942DF
:1022300003D1016821F001010160012084F83D0013
:10224000002010BD000001400004014010B51F49EE
:102250002DED028B884235D11D4C94ED040AB5EE6C
:10226000C00AF1EE10FA02DDF0EE400A01E0F1EEF4
:10227000400A10EE900A174988420ADC00211648ED
:10228000FFF7B6FFBDEC028B1048BDE81040FFF72A
:10229000AABD9FED128B0E48B5EEC00AF1EE10FA02
:1022A000406806DDFEF79AF853EC182BFDF7EFFFB8
:1022B00005E0FEF793F853EC182BFEF789F8FEF7CC
:1022C000A0F86060BDEC028B10BD0000E0000020B3
:1022D000D01A00206666E63D20010020CDCCCCCC93
:1022E000CCCCBC3F7047704770B50268044610689C
:1022F000D168536910F00F0F52D003F0010501F4BB
:1023000090762E435FD0C20705D0CA0503D5E26B95
:1023100042F00102E263420705D5DA0703D0E26B1F
:1023200042F00202E263820705D5DA0703D0E26BCE
:1023300042F00402E263020707D501F020022A43BB
:1023400003D0E26B42F00802E263E26B002A33D072
:10235000800604D5880602D5204600F066FE206877
:102360004069E16BC0F38010090700D428B3204610
:1023700000F04DFE2068416949061AD5416921F0F7
:1023800040014161606BA0B11B490165606BFEF7C4
:10239000A8FE002810D0606B016DBDE870400847B2
:1023A000830610D58B060ED52046BDE8704000F0A0
:1023B0003CBE2046FFF797FF70BD2046FFF793FF16
:1023C0000020E06370BD030606D50B0604D5204649
:1023D000BDE8704000F008BF4006F3D54806F1D5CF
:1023E000D168204621F04001D160202184F83910C5
:1023F00000F08DF970BD0000FF2F000870B50400DB
:1024000004D094F83900002510B106E0012070BD19
:1024100084F83850204600F023F8242084F839004E
:102420002068C16821F40051C160204600F048FED8
:102430002068016921F4904101612068416921F01F
:102440002A0141612068C16841F40051C160E5631F
:10245000202084F8390084F83A00002070BD000084
:102460002DE9F04786B0044614216846FDF704FFC5
:102470005B485B49DFF86481D4F800C01439C0229E
:1024800002230327002506154FF0400AC4454ED10C
:10249000D0F800C04CF0100CC0F800C0006800F08C
:1024A00010000590086840F002000860086869465E
:1024B00000F0020005900720CDE903708DE82C00A4
:1024C0004848FEF77FFF494F47484FF000693860A2
:1024D000C7E90195C7E903564FF480787D61C7E9E4
:1024E00006583D6238467D62FEF7DEFE08B1FEF713
:1024F00098FA6763BC633D4F3B4860377830C7E963
:1025000003567D61C7E906583D627D6287E8010692
:102510003846FEF7C9FE08B1FEF783FA27630022AA
:1025200011462520BC63FFF7ABF8252050E0DFF80B
:10253000C080C4454ED1D0F800C04CF0200CC0F88B
:1025400000C0006800F020000590086840F004001A
:1025500008600868694600F0040005900820CDE98D
:1025600003708DE82C002348FEF72CFF1F4F1E48F8
:10257000C037183838604FF02068C7E90185C7E9CF
:1025800003567D61BD61FD613D6238467D62FEF7A7
:102590008BFE08B1FEF745FA6763BC63164F12481D
:1025A000C7E903567D61BD61FD613D6260307D62BA
:1025B00087E801053846FEF777FE08B1FEF731FAE5
:1025C0002763002211464720BC63FFF759F84720D4
:1025D000FFF748F806B0BDE8F087000000100140A2
:1025E000443802400004024040640240F4010020EC
:1025F00000140140000802401403002030B50068B8
:10260000114988420CD1114841880A0408D4024675
:102610004C0412784FF0000306D50A2A01D04380FB
:1026200030BD41F400410DE00D2A09D0C1F30D0485
:10263000074D491C89B22A5541801329EFD830BD76
:1026400041F48041418030BD001401400000002071
:10265000600100202DE9F843044690F839001F4638
:1026600016460D46202850D1B5B1AEB194F83800C9
:1026700001284AD0012084F838004FF00008C4F83F
:102680003C80212084F83900FEF78CFFA684814627
:10269000E68484F8388026E00120BDE8F883E08CE9
:1026A000401EE084A0684B46B0F5805F4FF000020A
:1026B0004FF080012046009703D000F0C6FDE8B936
:1026C0000DE000F0C2FDC8B928882168C0F30800F9
:1026D0004860206908B16D1C05E0AD1C03E021686D
:1026E00015F8010B4860E08C0028D8D14B46002239
:1026F00040212046009700F0A8FD08B10320CCE758
:10270000202084F839000020C7E70220C5E7704781
:10271000FEE780EC030A12B2828409B2C184511A26
:1027200001EE901AB0EE003AF8EEE11AC0ED061A8A
:1027300090ED072A61EEA00A71EEC22A22EE800A0D
:10274000F0EE612A42EE432A80ED030AC0ED040A4E
:1027500090ED082A30EE200A32EE822A22EE011A8B
:1027600080ED051AB0F9281070EE010A00EE101A7B
:10277000B8EEC00A30EE800ABDEEC00A10EE101AA4
:1027800009B20185C0ED071AC0ED081A994201DBB4
:10279000038503E05A42914200DA0285B0F928002D
:1027A00000EE100AB8EEC00A70470000104810B5DD
:1027B0000E4901600321416000214FF40022816035
:1027C000C0E903124FF440124261017601224276C1
:1027D0008276C27601774277FEF781FB002803D02C
:1027E000BDE81040FEF71DB910BD000000640040B8
:1027F00038000020154808B5016841F480010160E7
:102800000068002200F48000009011463920FEF795
:1028100037FF3920FEF726FF002211463A20FEF747
:102820002FFF3A20FEF71EFF002211464520FEF73B
:1028300027FF4520FEF716FF002211464620FEF72F
:102840001FFFBDE808404620FEF70CBF30380240AD
:1028500010B586B014216846FDF70EFD1D480168CD
:1028600041F080010160016801F08001059101687B
:1028700041F001010160016801F001010591016869
:1028800041F004010160016801F004010591016853
:1028900041F008010160016801F00801059101683B
:1028A00041F00201016000680B4C00F0020005904D
:1028B000012202212046FEF76FFE02210122CDE90E
:1028C0000012CDE9022169462046FEF77BFD06B0E5
:1028D00010BD0000303802400000024010B586B044
:1028E000002417480094019402940394049413491B
:1028F000059401606321C0E9011442F2C321C0E9DB
:10290000031444618461FFF7E8F908B1FEF789F820
:102910004FF48050009069460948FFF779FA08B1F2
:10292000FEF77FF8049404A905480594FFF78AF997
:10293000002801D0FEF775F806B010BD0000014078
:102940006000002010B586B0002416480094019461
:102950000294039404944FF0804105940160532144
:10296000C0E9011440F2E731C0E903148461FFF7C4
:10297000B4F908B1FEF755F84FF48050009069465D
:102980000848FFF745FA08B1FEF74BF8049404A98C
:1029900004480594FFF756F9002801D0FEF741F8E6
:1029A00006B010BDA000002010B586B00024174866
:1029B00000940194029403940494134905940160D3
:1029C0004721C0E9011441F28731C0E90314846151
:1029D000FFF783F908B1FEF724F84FF48050009018
:1029E00069460A48FFF714FA08B1FEF71AF804948A
:1029F00004A906480594FFF725F9002801D0FEF741
:102A000010F806B010BD000000080040E0000020F3
:102A100010B58EB000240794089409940A940B947E
:102A20001C2168460C94FDF727FC1F481D490160D6
:102A30004721C0E9011441F28731C0E90314802124
:102A40008161FFF74AF908B1FDF7EBFF4FF48050C1
:102A5000079007A91448FFF7DBF908B1FDF7E1FF7C
:102A60001148FFF786FB08B1FDF7DBFF0B940BA9BC
:102A70000D480C94FFF7E6F808B1FDF7D2FF60208F
:102A8000CDE9000402940022694607480494FFF748
:102A900008FB08B1FDF7C5FF0348FFF7D9FA0EB0F0
:102AA00010BD0000000C0040200100200D4810B5B2
:102AB0000B4901600C49416000214FF48062816044
:102AC000C0E903120C22C0E90521C161FFF796FCA1
:102AD000002803D0BDE81040FDF7A3BF10BD0000E3
:102AE0000010014074010020A08601000C4810B5C0
:102AF0000A4901604FF4E1314160002181600C22FC
:102B0000C160C0E904128161C161FFF777FC002850
:102B100003D0BDE81040FDF784BF10BD0014014094
:102B2000B4010020FEE770477047704770B500237E
:102B3000C47819460A46251D07E0C6185B1C36797D
:102B4000DBB23144C9B20A44D2B29D42F5D800F199
:102B500008031D46E154C6785B1C1C46F254C0793C
:102B6000435D8B4204D1005D904201D1012070BDD4
:102B7000002070BD07489FED060A80ED000A80ED39
:102B8000010A80ED030A80ED020A80ED040A704715
:102B900000000000D01A0020FEF70ABD30B593B047
:102BA00030216846FDF768FB14210CA8FDF764FB93
:102BB00019480025016841F080510160006800F06B
:102BC000805011901548016841F44041016000684F
:102BD000022400F440401190012000900004019074
:102BE0008001CDE9064006200890A820CDE909041F
:102BF00004200B906846FEF761FE0CA90F2081E8C7
:102C000031004FF4A0500F90E002109005210CA865
:102C1000FEF768FD13B030BD403802400070004040
:102C20000548016841F47001016003494FF00060FC
:102C3000803908607047000088ED00E010B5144846
:102C4000FFF748F801281DD102221249F120FDF7B3
:102C5000F9FC104902220831F220FDF7F3FC0D497E
:102C60000222891EF320FDF7EDFC0A4902220A31F7
:102C7000F420FDF7E7FCFDF7C1FC05496FF001000A
:102C800009680861BDE810400148FFF72DB9000050
:102C9000600000201C0A00207CB51A48FFF71AF8D3
:102CA000012829D1184D41F6C813B6EE001AB5F91E
:102CB0006222B5F95612DFED150AB2EE040A05F5E7
:102CC0004A70FFF726FD002400940194B5F95033B3
:102CD000B5F9BC214FF400710D48FDF75FFD0023ED
:102CE00000941A4640F2FF1109480194FDF756FD81
:102CF0000449A01E09680861BDE87C400148FFF74F
:102D0000F3B80000A0000020C4070020CDCC4C3F49
:102D1000641A00200148FFF7E7B80000E000002037
:102D20000148FFF7E1B8000020010020F0B502687B
:102D3000254C264D264E274F274B4FF0804CA04266
:102D400009D0604507D0A84205D0B04203D0B842B0
:102D500001D0984204D122F0700E4A6842EA0E0275
:102D6000A0421BD0604519D0A84217D0B04215D060
:102D7000B84213D0984211D0184DA8420ED0184D29
:102D8000A8420BD0174DA84208D0174DA84205D035
:102D9000164DA84202D0164DA84203D122F4407528
:102DA000CA682A434D6922F080022A4302608A6879
:102DB000C2620A688262A04201D0984201D10969C8
:102DC000016301214161F0BD0000014000040040A9
:102DD00000080040000C0040000401400040014099
:102DE000004401400048014000180040001C004021
:102DF0000020004010B501F01F030121046A994032
:102E00008C430462016A9A401143016210BD10B5FF
:102E1000846842EA032224F47F440A432243826006
:102E200010BD826822F070020A4342F007018160FF
:102E300070470000F0B5026A22F001020262036AE4
:102E400042688469124E24F073050C682C4323F009
:102E500002058B682B430D4DA84201D0B04205D12D
:102E600023F00807CB683B4323F00403A84201D0BA
:102E7000B04205D14D6922F4407215438A692A4354
:102E800042608461496841630362F0BD0000014013
:102E900000040140F0B5026A22F010020262026AE8
:102EA000436884690D6824F4E64444EA05248D6887
:102EB00022F0200242EA05120F4D104EA84201D026
:102EC000B04206D1CF6822F0800242EA071222F017
:102ED0004002A84201D0B04207D14D6923F44063BB
:102EE00043EA85038D6943EA850343608461496849
:102EF00081630262F0BD0000000001400004014057
:102F0000F0B5026A22F480720262026A4368C46900
:102F100022F4007224F073050C68124E2C438D6865
:102F200042EA05220E4DA84201D0B04206D1CF6838
:102F300022F4006242EA072222F48062A84201D011
:102F4000B04207D14D6923F4405343EA05138D691C
:102F500043EA05134360C4614968C1630262F0BD7E
:102F6000000001400004014030B5026A22F48052A2
:102F70000262046A4268C3690D6823F4E64343EAC7
:102F800005238D6824F4005444EA0534084DA84212
:102F900002D0084DA84204D14D6922F4804242EA91
:102FA00085124260C36149680164046230BD00005B
:102FB000000001400004014010B5036A046A24F0D7
:102FC00001040462846924F0F00444EA021423F04A
:102FD0000A020A438461026210BD10B5036A23F03D
:102FE000100303628369046A23F4704343EA0232E4
:102FF00024F0A00343EA01118261016210BD10B503
:10300000806B0021C185C184FFF76DF910BD016897
:10301000CA6822F49072CA6001684A6922F001020B
:103020004A61202180F83A10704710B590F83A10A4
:10303000222901D0022010BD8168B1F5805F11D036
:103040000169002901681FD0496801F07F03816A86
:103050004A1C82620B70C18D491E0904090CC1858E
:1030600018D02BE00269816A002A0268526805D0F4
:10307000D2B20A80816A491C8162ECE7C2F308027D
:103080000A80816A891CF7E74A68816A4B1C83625F
:103090000A70E0E70168CA6822F02002CA6001688D
:1030A000CA6822F48072CA6001684A6922F001028B
:1030B0004A61202180F83A10FFF7A0FA002010BDE5
:1030C0002DE9F041044600680169E26821F44051AD
:1030D000114301612169A068E269084361691143F4
:1030E00008432168CA6849F20C639A430243CA60E4
:1030F00020684169A26921F4407111434161E0698E
:10310000192764253226B0F5004F354A3549206825
:103110004FF0000806D0884201D0904236D1FEF729
:103120008BFB35E0884201D0904202D1FEF784FB50
:1031300001E0FEF771FB61684A18A0FB070148EB4C
:103140000803FDF74FF80146B0FBF5F00201B1FBB3
:10315000F5F06FF01803584301EB800006EBC00058
:10316000B0FBF5F000F0F80002EB4002B1FBF5F027
:10317000584301EB800006EBC000B0FBF5F000F017
:103180000700216810448860BDE8F081FEF744FB29
:1031900061688B0F8A00A0FB0701FDF723F8014649
:1031A000B0FBF5F06FF01802504301EB800006EB26
:1031B0000010B0FBF5F000F0F002B1FBF5F002EB0F
:1031C0000012B1FBF5F06FF01803584301EB8000DB
:1031D00006EB0010B0FBF5F000F00F00D1E70000A7
:1031E000001401400010014090F83910212901D04D
:1031F000022070478168B1F5805F016A0BD04A1CDC
:103200000262026809785160C18C491E0904090CE8
:10321000C1840ED017E009880268C1F3080151602B
:1032200001690029016A02D0491C0162ECE7891C8E
:10323000FBE70168CA6822F08002CA600068C168C2
:1032400041F04001C160002070472DE9F0419846EF
:1032500017460E460446069D1DE0681C1BD02DB186
:10326000FEF7A0F9A0EB0800A84214D92068C168B5
:1032700021F4D071C1602068416921F001014161F0
:10328000202084F8390084F83A00002084F83800BF
:103290000320BDE8F0812068006836EA000004D011
:1032A0000020B842D9D00020F3E70120F9E7000060
:1032B00010B50448FDF78AFBBDE810400148FFF750
:1032C00013B80000740100200148FFF70DB800009A
:1032D000B4010020FEE7000030B5134A002141F29E
:1032E0007074952301FB03F032F8203002EB80006C
:1032F00005895B1BA34202DD43895B1E05E041F2A9
:103300007075EB4202DA43895B1C4381B0F90A30E5
:103310005B1CB3F5004F01D100234381491C0829F0
:10332000DFDB9FED020A30BDC40700200000000073
:103330000907090E002804DB00F1E02080F80014E2
:10334000704700F00F0000F1E02080F8141D704776
:1033500002E008C8121F08C1002AFAD1704770475E
:10336000002001E001C1121F002AFBD170470000BC
:1033700086B0FEF725F9FFF711FCFFF769FAFFF7B2
:1033800039FAFFF713FAFFF7A9FAFFF7AFFBFFF7D8
:10339000D9FAFFF78BFBFFF707FBFFF739FB182282
:1033A0002E496846FCF74FFF2C4810380FC8FDF730
:1033B000DDF92B48FDF762FE29480068416941F0BC
:1033C0000201416127490868C26842F40052C260A4
:1033D0000868C16841F02001C1602348FEF77DFC08
:1033E00021480068C16841F00101C1601E48FEF734
:1033F000E9FC1D48FEF7E6FC1C48FEF76EFC1B4886
:103400000068C16841F00101C1601848FEF7DAFCAC
:103410001748FEF762FC16480068C16841F00101D8
:10342000C1601348FEF7CEFC1248FEF756FC114C63
:103430002068C16841F00101C1602046FEF7C2FC6E
:1034400000212046FEF7B2FEFDF7CEF800F014F89A
:10345000FFF790FB216801204863FEE7F41A002083
:1034600038000020B401002060000020A0000020EF
:10347000E00000202001002038B51249002508682E
:10348000026842680092C26842F40052C260086852
:10349000C16841F01001C1600A4C0B4A94F83A002F
:1034A00020280DD11623A262A385E5632168606BF5
:1034B000091DFDF763FF2068416941F0400141614A
:1034C00038BD0000740100200C1B002000061016FF
:1034D00000061016000000000000000001020304B6
:1034E0000607080900000000010203040C3500086B
:1034F0000000002038000000503300084435000868
:1035000038000020F01E00006033000800000000BA
:103510000100000010000000000000000024F40082
:10352000000000000000000000000000000000009B
:10353000000000000000000000000000000000008B
:04354000CD080008AA
:04000005080001AD41
:00000001FF
